{
  "_format": "hh-sol-artifact-1",
  "contractName": "Initializable",
  "sourceName": "contracts/libraries/Initializable.sol",
  "abi": [
    {
      "inputs": [],
      "name": "getInitialized",
      "outputs": [
        {
          "internalType": "bool",
          "name": "",
          "type": "bool"
        }
      ],
      "stateMutability": "view",
      "type": "function"
    }
  ],
  "bytecode": "0x60806040526000805460ff19169055348015601957600080fd5b506086806100286000396000f3fe6080604052348015600f57600080fd5b506004361060285760003560e01c8063ee89dab414602d575b600080fd5b60336047565b604080519115158252519081900360200190f35b60005460ff169056fea26469706673582212207f5f12155e60fb798f1f4bcada321a308e16dba267131cef13223fe6994a064064736f6c63430007060033",
  "linkReferences": {},
  "deployedLinkReferences": {}
}