{
  "_format": "hh-sol-artifact-1",
  "contractName": "BPoolForTesting",
  "sourceName": "contracts/balancer/BPoolForTesting.sol",
  "abi": [
    {
      "inputs": [
        {
          "internalType": "contract BFactory",
          "name": "_bFactory",
          "type": "address"
        }
      ],
      "stateMutability": "nonpayable",
      "type": "constructor"
    },
    {
      "inputs": [
        {
          "internalType": "contract Cash[]",
          "name": "_tokens",
          "type": "address[]"
        },
        {
          "internalType": "uint256[]",
          "name": "_initialLiquidity",
          "type": "uint256[]"
        },
        {
          "internalType": "uint256[]",
          "name": "_weights",
          "type": "uint256[]"
        }
      ],
      "name": "createBPoolForTesting",
      "outputs": [
        {
          "internalType": "contract BPool",
          "name": "",
          "type": "address"
        }
      ],
      "stateMutability": "nonpayable",
      "type": "function"
    },
    {
      "inputs": [],
      "name": "getBPool",
      "outputs": [
        {
          "internalType": "contract BPool",
          "name": "",
          "type": "address"
        }
      ],
      "stateMutability": "view",
      "type": "function"
    }
  ],
  "bytecode": "0x608060405234801561001057600080fd5b5060405161052b38038061052b8339818101604052602081101561003357600080fd5b5051600080546001600160a01b039092166001600160a01b03199092169190911790556104c6806100656000396000f3fe608060405234801561001057600080fd5b50600436106100365760003560e01c80632c500bc81461003b5780634b9337021461005f575b600080fd5b610043610173565b604080516001600160a01b039092168252519081900360200190f35b6100436004803603606081101561007557600080fd5b81019060208101813564010000000081111561009057600080fd5b8201836020820111156100a257600080fd5b803590602001918460208302840111640100000000831117156100c457600080fd5b9193909290916020810190356401000000008111156100e257600080fd5b8201836020820111156100f457600080fd5b8035906020019184602083028401116401000000008311171561011657600080fd5b91939092909160208101903564010000000081111561013457600080fd5b82018360208201111561014657600080fd5b8035906020019184602083028401116401000000008311171561016857600080fd5b509092509050610182565b6001546001600160a01b031690565b6000858214801561019257508584145b6101cd5760405162461bcd60e51b815260040180806020018281038252604681526020018061044b6046913960600191505060405180910390fd5b60008054906101000a90046001600160a01b03166001600160a01b031663d556c5dc6040518163ffffffff1660e01b8152600401602060405180830381600087803b15801561021b57600080fd5b505af115801561022f573d6000803e3d6000fd5b505050506040513d602081101561024557600080fd5b5051600180546001600160a01b0319166001600160a01b0390921691909117905560005b868110156103ca5787878281811061027d57fe5b6001546040805163095ea7b360e01b81526001600160a01b03928316600482015260001960248201529051602093840295909501359091169363095ea7b39350604480830193928290030181600087803b1580156102da57600080fd5b505af11580156102ee573d6000803e3d6000fd5b505050506040513d602081101561030457600080fd5b50506001546001600160a01b031663e4e1e53889898481811061032357fe5b905060200201356001600160a01b031688888581811061033f57fe5b9050602002013587878681811061035257fe5b905060200201356040518463ffffffff1660e01b815260040180846001600160a01b031681526020018381526020018281526020019350505050600060405180830381600087803b1580156103a657600080fd5b505af11580156103ba573d6000803e3d6000fd5b5050600190920191506102699050565b50600160009054906101000a90046001600160a01b03166001600160a01b0316634bb278f36040518163ffffffff1660e01b8152600401600060405180830381600087803b15801561041b57600080fd5b505af115801561042f573d6000803e3d6000fd5b50506001546001600160a01b0316999850505050505050505056fe546f6b656e732c207765696768747320616e6420696e697469616c206c69717569646974792073686f756c6420616c6c2068617665207468652073616d65206c656e6774682ea264697066735822122032d3289a20562fb86ff049219e041e3803e1090757d39bf164fee43548c9e49664736f6c63430007060033",
  "linkReferences": {},
  "deployedLinkReferences": {}
}