{
  "_format": "hh-sol-artifact-1",
  "contractName": "TrustedMarketFactory",
  "sourceName": "contracts/turbo/TrustedMarketFactory.sol",
  "abi": [
    {
      "inputs": [
        {
          "internalType": "address",
          "name": "_owner",
          "type": "address"
        },
        {
          "internalType": "contract IERC20Full",
          "name": "_collateral",
          "type": "address"
        },
        {
          "internalType": "uint256",
          "name": "_shareFactor",
          "type": "uint256"
        },
        {
          "internalType": "contract FeePot",
          "name": "_feePot",
          "type": "address"
        },
        {
          "internalType": "uint256",
          "name": "_stakerFee",
          "type": "uint256"
        },
        {
          "internalType": "uint256",
          "name": "_creatorFee",
          "type": "uint256"
        }
      ],
      "stateMutability": "nonpayable",
      "type": "constructor"
    },
    {
      "anonymous": false,
      "inputs": [
        {
          "indexed": false,
          "internalType": "uint256",
          "name": "id",
          "type": "uint256"
        },
        {
          "indexed": false,
          "internalType": "address",
          "name": "creator",
          "type": "address"
        },
        {
          "indexed": false,
          "internalType": "uint256",
          "name": "_endTime",
          "type": "uint256"
        },
        {
          "indexed": false,
          "internalType": "string",
          "name": "description",
          "type": "string"
        },
        {
          "indexed": false,
          "internalType": "string[]",
          "name": "outcomes",
          "type": "string[]"
        }
      ],
      "name": "MarketCreated",
      "type": "event"
    },
    {
      "anonymous": false,
      "inputs": [
        {
          "indexed": false,
          "internalType": "uint256",
          "name": "id",
          "type": "uint256"
        },
        {
          "indexed": false,
          "internalType": "address",
          "name": "winner",
          "type": "address"
        }
      ],
      "name": "MarketResolved",
      "type": "event"
    },
    {
      "anonymous": false,
      "inputs": [
        {
          "indexed": false,
          "internalType": "uint256",
          "name": "id",
          "type": "uint256"
        },
        {
          "indexed": false,
          "internalType": "uint256",
          "name": "amount",
          "type": "uint256"
        },
        {
          "indexed": false,
          "internalType": "address",
          "name": "receiver",
          "type": "address"
        }
      ],
      "name": "SharesBurned",
      "type": "event"
    },
    {
      "anonymous": false,
      "inputs": [
        {
          "indexed": false,
          "internalType": "uint256",
          "name": "id",
          "type": "uint256"
        },
        {
          "indexed": false,
          "internalType": "uint256",
          "name": "amount",
          "type": "uint256"
        },
        {
          "indexed": false,
          "internalType": "address",
          "name": "receiver",
          "type": "address"
        }
      ],
      "name": "SharesMinted",
      "type": "event"
    },
    {
      "anonymous": false,
      "inputs": [
        {
          "indexed": false,
          "internalType": "uint256",
          "name": "id",
          "type": "uint256"
        },
        {
          "indexed": false,
          "internalType": "uint256",
          "name": "amount",
          "type": "uint256"
        },
        {
          "indexed": true,
          "internalType": "address",
          "name": "receiver",
          "type": "address"
        }
      ],
      "name": "WinningsClaimed",
      "type": "event"
    },
    {
      "inputs": [
        {
          "internalType": "address",
          "name": "",
          "type": "address"
        }
      ],
      "name": "accumulatedCreatorFees",
      "outputs": [
        {
          "internalType": "uint256",
          "name": "",
          "type": "uint256"
        }
      ],
      "stateMutability": "view",
      "type": "function"
    },
    {
      "inputs": [
        {
          "internalType": "uint256",
          "name": "_id",
          "type": "uint256"
        },
        {
          "internalType": "uint256",
          "name": "_sharesToBurn",
          "type": "uint256"
        },
        {
          "internalType": "address",
          "name": "_receiver",
          "type": "address"
        }
      ],
      "name": "burnShares",
      "outputs": [
        {
          "internalType": "uint256",
          "name": "",
          "type": "uint256"
        }
      ],
      "stateMutability": "nonpayable",
      "type": "function"
    },
    {
      "inputs": [
        {
          "internalType": "uint256",
          "name": "_shares",
          "type": "uint256"
        }
      ],
      "name": "calcCost",
      "outputs": [
        {
          "internalType": "uint256",
          "name": "",
          "type": "uint256"
        }
      ],
      "stateMutability": "view",
      "type": "function"
    },
    {
      "inputs": [
        {
          "internalType": "uint256",
          "name": "_collateralIn",
          "type": "uint256"
        }
      ],
      "name": "calcShares",
      "outputs": [
        {
          "internalType": "uint256",
          "name": "",
          "type": "uint256"
        }
      ],
      "stateMutability": "view",
      "type": "function"
    },
    {
      "inputs": [
        {
          "internalType": "address",
          "name": "_receiver",
          "type": "address"
        }
      ],
      "name": "claimCreatorFees",
      "outputs": [],
      "stateMutability": "nonpayable",
      "type": "function"
    },
    {
      "inputs": [
        {
          "internalType": "uint256[]",
          "name": "_ids",
          "type": "uint256[]"
        },
        {
          "internalType": "address",
          "name": "_receiver",
          "type": "address"
        }
      ],
      "name": "claimManyWinnings",
      "outputs": [
        {
          "internalType": "uint256",
          "name": "",
          "type": "uint256"
        }
      ],
      "stateMutability": "nonpayable",
      "type": "function"
    },
    {
      "inputs": [
        {
          "internalType": "uint256",
          "name": "_id",
          "type": "uint256"
        },
        {
          "internalType": "address",
          "name": "_receiver",
          "type": "address"
        }
      ],
      "name": "claimWinnings",
      "outputs": [
        {
          "internalType": "uint256",
          "name": "",
          "type": "uint256"
        }
      ],
      "stateMutability": "nonpayable",
      "type": "function"
    },
    {
      "inputs": [],
      "name": "collateral",
      "outputs": [
        {
          "internalType": "contract IERC20Full",
          "name": "",
          "type": "address"
        }
      ],
      "stateMutability": "view",
      "type": "function"
    },
    {
      "inputs": [
        {
          "internalType": "address",
          "name": "_creator",
          "type": "address"
        },
        {
          "internalType": "uint256",
          "name": "_endTime",
          "type": "uint256"
        },
        {
          "internalType": "string",
          "name": "_description",
          "type": "string"
        },
        {
          "internalType": "string[]",
          "name": "_names",
          "type": "string[]"
        },
        {
          "internalType": "string[]",
          "name": "_symbols",
          "type": "string[]"
        }
      ],
      "name": "createMarket",
      "outputs": [
        {
          "internalType": "uint256",
          "name": "",
          "type": "uint256"
        }
      ],
      "stateMutability": "nonpayable",
      "type": "function"
    },
    {
      "inputs": [],
      "name": "creatorFee",
      "outputs": [
        {
          "internalType": "uint256",
          "name": "",
          "type": "uint256"
        }
      ],
      "stateMutability": "view",
      "type": "function"
    },
    {
      "inputs": [],
      "name": "feePot",
      "outputs": [
        {
          "internalType": "contract FeePot",
          "name": "",
          "type": "address"
        }
      ],
      "stateMutability": "view",
      "type": "function"
    },
    {
      "inputs": [
        {
          "internalType": "uint256",
          "name": "_id",
          "type": "uint256"
        }
      ],
      "name": "getMarket",
      "outputs": [
        {
          "components": [
            {
              "internalType": "address",
              "name": "creator",
              "type": "address"
            },
            {
              "internalType": "contract OwnedERC20[]",
              "name": "shareTokens",
              "type": "address[]"
            },
            {
              "internalType": "uint256",
              "name": "endTime",
              "type": "uint256"
            },
            {
              "internalType": "contract OwnedERC20",
              "name": "winner",
              "type": "address"
            },
            {
              "internalType": "uint256",
              "name": "creatorFee",
              "type": "uint256"
            }
          ],
          "internalType": "struct AbstractMarketFactory.Market",
          "name": "",
          "type": "tuple"
        }
      ],
      "stateMutability": "view",
      "type": "function"
    },
    {
      "inputs": [
        {
          "internalType": "uint256",
          "name": "_id",
          "type": "uint256"
        }
      ],
      "name": "getMarketDetails",
      "outputs": [
        {
          "components": [
            {
              "internalType": "string",
              "name": "description",
              "type": "string"
            }
          ],
          "internalType": "struct TrustedMarketFactory.MarketDetails",
          "name": "",
          "type": "tuple"
        }
      ],
      "stateMutability": "view",
      "type": "function"
    },
    {
      "inputs": [],
      "name": "getOwner",
      "outputs": [
        {
          "internalType": "address",
          "name": "",
          "type": "address"
        }
      ],
      "stateMutability": "view",
      "type": "function"
    },
    {
      "inputs": [
        {
          "internalType": "uint256",
          "name": "_id",
          "type": "uint256"
        }
      ],
      "name": "isMarketResolved",
      "outputs": [
        {
          "internalType": "bool",
          "name": "",
          "type": "bool"
        }
      ],
      "stateMutability": "view",
      "type": "function"
    },
    {
      "inputs": [],
      "name": "marketCount",
      "outputs": [
        {
          "internalType": "uint256",
          "name": "",
          "type": "uint256"
        }
      ],
      "stateMutability": "view",
      "type": "function"
    },
    {
      "inputs": [
        {
          "internalType": "uint256",
          "name": "_id",
          "type": "uint256"
        },
        {
          "internalType": "uint256",
          "name": "_shareToMint",
          "type": "uint256"
        },
        {
          "internalType": "address",
          "name": "_receiver",
          "type": "address"
        }
      ],
      "name": "mintShares",
      "outputs": [],
      "stateMutability": "nonpayable",
      "type": "function"
    },
    {
      "inputs": [
        {
          "internalType": "uint256",
          "name": "",
          "type": "uint256"
        }
      ],
      "name": "resolveMarket",
      "outputs": [],
      "stateMutability": "pure",
      "type": "function"
    },
    {
      "inputs": [],
      "name": "shareFactor",
      "outputs": [
        {
          "internalType": "uint256",
          "name": "",
          "type": "uint256"
        }
      ],
      "stateMutability": "view",
      "type": "function"
    },
    {
      "inputs": [],
      "name": "stakerFee",
      "outputs": [
        {
          "internalType": "uint256",
          "name": "",
          "type": "uint256"
        }
      ],
      "stateMutability": "view",
      "type": "function"
    },
    {
      "inputs": [
        {
          "internalType": "address",
          "name": "_newOwner",
          "type": "address"
        }
      ],
      "name": "transferOwnership",
      "outputs": [
        {
          "internalType": "bool",
          "name": "",
          "type": "bool"
        }
      ],
      "stateMutability": "nonpayable",
      "type": "function"
    },
    {
      "inputs": [
        {
          "internalType": "uint256",
          "name": "_id",
          "type": "uint256"
        },
        {
          "internalType": "uint256",
          "name": "_winningOutcome",
          "type": "uint256"
        }
      ],
      "name": "trustedResolveMarket",
      "outputs": [],
      "stateMutability": "nonpayable",
      "type": "function"
    }
  ],
  "bytecode": "0x60806040523480156200001157600080fd5b506040516200326e3803806200326e833981016040819052620000349162000131565b600080546001600160a01b038088166001600160a01b03199283168117909355600587905560018054918716919092161790556002839055600382905560405163095ea7b360e01b8152869186918691869186919063095ea7b390620000a390869060001990600401620001c9565b602060405180830381600087803b158015620000be57600080fd5b505af1158015620000d3573d6000803e3d6000fd5b505050506040513d601f19601f82011682018060405250810190620000f99190620001a0565b505060078054336001600160a01b031991821617166001600160a01b039b909b169a909a1790995550620001fb975050505050505050565b60008060008060008060c087890312156200014a578182fd5b86516200015781620001e2565b60208801519096506200016a81620001e2565b6040880151606089015191965094506200018481620001e2565b809350506080870151915060a087015190509295509295509295565b600060208284031215620001b2578081fd5b81518015158114620001c2578182fd5b9392505050565b6001600160a01b03929092168252602082015260400190565b6001600160a01b0381168114620001f857600080fd5b50565b613063806200020b6000396000f3fe60806040523480156200001157600080fd5b5060043610620001605760003560e01c8063893d20e811620000c9578063d8dfeb451162000087578063d8dfeb4514620002e8578063e5678dfa14620002f2578063e88958dc1462000309578063eb44fdd31462000313578063ec9790821462000339578063f2fde38b14620003435762000160565b8063893d20e81462000273578063992c9079146200027d578063b06c1ba31462000294578063cc87adea14620002ba578063d6ae6e4414620002d15762000160565b80634b2d9ffc11620001235780634b2d9ffc14620001f25780634c9f66c714620001fc57806353ac55f514620002155780636399d03d146200023b5780637641ab0114620002525780637cb9bc3a146200025c5762000160565b80631e08aae21462000165578063221fff81146200019457806335a9cdad14620001ad5780633f8dd7aa14620001c4578063473a6d5214620001db575b600080fd5b6200017c62000176366004620016aa565b6200035a565b6040516200018b919062001c32565b60405180910390f35b620001ab620001a536600462001906565b6200036c565b005b6200017c620001be36600462001906565b620005dc565b620001ab620001d5366004620018e4565b620007b8565b6200017c620001ec36600462001884565b6200089c565b6200017c620008ef565b62000206620008f5565b6040516200018b9190620019c2565b6200022c6200022636600462001884565b62000904565b6040516200018b919062001a13565b620001ab6200024c36600462001884565b620009da565b6200017c620009f4565b6200017c6200026d366004620016c7565b620009fa565b6200020662000bc7565b6200017c6200028e366004620018b6565b62000bd6565b620002ab620002a536600462001884565b62000db2565b6040516200018b919062001b75565b6200017c620002cb36600462001884565b62000e76565b620001ab620002e2366004620016aa565b62000e7d565b6200020662000f20565b6200017c62000303366004620017af565b62000f2f565b6200017c62000f7d565b6200032a6200032436600462001884565b62000f83565b6040516200018b919062001b9a565b6200017c6200109c565b6200022c62000354366004620016aa565b620010a2565b60046020526000908152604090205481565b6000600684815481106200037c57fe5b60009182526020918290206040805160a081018252600590930290910180546001600160a01b03168352600181018054835181870281018701909452808452939491938583019392830182828015620003ff57602002820191906000526020600020905b81546001600160a01b03168152600190910190602001808311620003e0575b50505091835250506002820154602082015260038201546001600160a01b0316604080830191909152600490920154606090910152810151909150620004625760405162461bcd60e51b8152600401620004599062001b4d565b60405180910390fd5b60006200046f846200089c565b6000546040516323b872dd60e01b81529192506001600160a01b0316906323b872dd90620004a690339030908690600401620019d6565b602060405180830381600087803b158015620004c157600080fd5b505af1158015620004d6573d6000803e3d6000fd5b505050506040513d601f19601f82011682018060405250810190620004fc919062001862565b5060005b8260200151518110156200059757826020015181815181106200051f57fe5b60200260200101516001600160a01b031663c024cd2685876040518363ffffffff1660e01b815260040162000556929190620019fa565b600060405180830381600087803b1580156200057157600080fd5b505af115801562000586573d6000803e3d6000fd5b505060019092019150620005009050565b507fd81c0442e10068a9818f3aa093c9ccb804584690df572d7df3da2d892a6973f2858585604051620005cd9392919062001d2f565b60405180910390a15050505050565b60008060068581548110620005ed57fe5b60009182526020918290206040805160a081018252600590930290910180546001600160a01b031683526001810180548351818702810187019094528084529394919385830193928301828280156200067057602002820191906000526020600020905b81546001600160a01b0316815260019091019060200180831162000651575b50505091835250506002820154602082015260038201546001600160a01b0316604080830191909152600490920154606090910152810151909150620006ca5760405162461bcd60e51b8152600401620004599062001b4d565b60005b816020015151811015620007645781602001518181518110620006ec57fe5b60200260200101516001600160a01b03166342986e1333876040518363ffffffff1660e01b815260040162000723929190620019fa565b600060405180830381600087803b1580156200073e57600080fd5b505af115801562000753573d6000803e3d6000fd5b505060019092019150620006cd9050565b507fb6fdb729b2ed801daf629f0ab713e4a7a73619505790f6f27fd92d6f2c9688d78585336040516200079a9392919062001d2f565b60405180910390a1620007af8585856200110e565b95945050505050565b6007546001600160a01b03163314620007d057600080fd5b600060068381548110620007e057fe5b90600052602060002090600502016001018281548110620007fd57fe5b600091825260209091200154600680546001600160a01b0390921692508291859081106200082757fe5b906000526020600020906005020160030160006101000a8154816001600160a01b0302191690836001600160a01b031602179055507fc68d106ea6e4bec784925cfd91767212c71ced92adbac107dc364435321113f683826040516200088f92919062001c3b565b60405180910390a1505050565b60006005548210158015620008bb57506005548281620008b857fe5b06155b620008da5760405162461bcd60e51b8152600401620004599062001adc565b6005548281620008e657fe5b0490505b919050565b60025481565b6001546001600160a01b031681565b600080600683815481106200091557fe5b60009182526020918290206040805160a081018252600590930290910180546001600160a01b031683526001810180548351818702810187019094528084529394919385830193928301828280156200099857602002820191906000526020600020905b81546001600160a01b0316815260019091019060200180831162000979575b50505091835250506002820154602082015260038201546001600160a01b03908116604083015260049092015460609182015291909101511615159392505050565b60405162461bcd60e51b8152600401620004599062001a60565b60055481565b6007546000906001600160a01b0316331462000a1557600080fd5b600680546040805160a081019091526001600160a01b038c1681529091906020810162000a5a62000a47898b62001d92565b62000a53888a62001d92565b306200138b565b815260208082018d905260006040830181905260035460609093019290925283546001808201865594835291819020835160059093020180546001600160a01b0319166001600160a01b039093169290921782558281015180519394929362000acb938501929190910190620014e0565b50604082810151600283015560608301516003830180546001600160a01b0319166001600160a01b0390921691909117905560809092015160049091015580516020601f8a01819004810282018301835281018981526008928291908c908c908190850183828082843760009201829052509390945250508354600181018555938152602090819020835180519495919091019362000b729350849291909101906200154a565b5050507fa1bb41461c32765a0cc838c35ce6b8e28985bb6a069dfe2af0873796438670d4818b8b8b8b898960405162000bb2979695949392919062001c52565b60405180910390a19998505050505050505050565b6007546001600160a01b031690565b600062000be38362000904565b62000bf35762000bf383620009da565b60006006848154811062000c0357fe5b60009182526020918290206040805160a081018252600590930290910180546001600160a01b0316835260018101805483518187028101870190945280845293949193858301939283018282801562000c8657602002820191906000526020600020905b81546001600160a01b0316815260019091019060200180831162000c67575b50505091835250506002820154602082015260038201546001600160a01b03908116604080840191909152600493840154606093840152918401519151631c4a5de160e21b815293945060009391169163712977849162000cea91339101620019c2565b602060405180830381600087803b15801562000d0557600080fd5b505af115801562000d1a573d6000803e3d6000fd5b505050506040513d601f19601f8201168201806040525081019062000d4091906200189d565b9050600554600554828162000d5157fe5b04029050336001600160a01b03167f2bdd7a5109193ce6270ec3b4afcf4ccd4a06c27742ba11f660498cb41433bb00868360405162000d9292919062001d21565b60405180910390a262000da78582866200110e565b925050505b92915050565b62000dbc620015cd565b6008828154811062000dca57fe5b60009182526020918290206040805192909101805460026001821615610100026000190190911604601f810185900485028401830183529383018481529293909284929091849184018282801562000e665780601f1062000e3a5761010080835404028352916020019162000e66565b820191906000526020600020905b81548152906001019060200180831162000e4857829003601f168201915b5050505050815250509050919050565b6005540290565b3360009081526004602081905260408083208054908490559254905163a9059cbb60e01b81526001600160a01b039091169163a9059cbb9162000ec5918691869101620019fa565b602060405180830381600087803b15801562000ee057600080fd5b505af115801562000ef5573d6000803e3d6000fd5b505050506040513d601f19601f8201168201806040525081019062000f1b919062001862565b505050565b6000546001600160a01b031681565b600080805b845181101562000f755762000f6a62000f6286838151811062000f5357fe5b60200260200101518662000bd6565b839062001481565b915060010162000f34565b509392505050565b60035481565b62000f8d620015e0565b60065482111562000fd257506040805160a0810182526000808252825181815260208082018552830152918101829052606081018290526080810191909152620008ea565b6006828154811062000fe057fe5b60009182526020918290206040805160a081018252600590930290910180546001600160a01b031683526001810180548351818702810187019094528084529394919385830193928301828280156200106357602002820191906000526020600020905b81546001600160a01b0316815260019091019060200180831162001044575b50505091835250506002820154602082015260038201546001600160a01b031660408201526004909101546060909101529050620008ea565b60065490565b6007546000906001600160a01b03163314620010bd57600080fd5b6001600160a01b038216620010d157600080fd5b600754620010e9906001600160a01b0316836200149b565b50600780546001600160a01b0383166001600160a01b03199091161790556001919050565b6000806200111c846200089c565b90506000600686815481106200112e57fe5b60009182526020918290206040805160a081018252600590930290910180546001600160a01b03168352600181018054835181870281018701909452808452939491938583019392830182828015620011b157602002820191906000526020600020905b81546001600160a01b0316815260019091019060200180831162001192575b50505091835250506002820154602082015260038201546001600160a01b031660408201526004909101546060909101526080810151909150600090670de0b6b3a7640000906200120390856200149f565b816200120b57fe5b0490506000670de0b6b3a764000062001230856002546200149f90919063ffffffff16565b816200123857fe5b84516001600160a01b039081166000908152600460208190526040918290208054880190556001549151630ebdac0960e41b8152949093049450169163ebdac09091620012889185910162001c32565b602060405180830381600087803b158015620012a357600080fd5b505af1158015620012b8573d6000803e3d6000fd5b505050506040513d601f19601f82011682018060405250810190620012de919062001862565b506000546001600160a01b031663a9059cbb876200130984620013028988620014ca565b90620014ca565b6040518363ffffffff1660e01b815260040162001328929190620019fa565b602060405180830381600087803b1580156200134357600080fd5b505af115801562001358573d6000803e3d6000fd5b505050506040513d601f19601f820116820180604052508101906200137e919062001862565b5092979650505050505050565b825160609060008167ffffffffffffffff81118015620013aa57600080fd5b50604051908082528060200260200182016040528015620013d5578160200160208202803683370190505b50905060005b828110156200147757868181518110620013f157fe5b60200260200101518682815181106200140657fe5b6020026020010151866040516200141d9062001621565b6200142b9392919062001a1e565b604051809103906000f08015801562001448573d6000803e3d6000fd5b508282815181106200145657fe5b6001600160a01b0390921660209283029190910190910152600101620013db565b5095945050505050565b6000828201838110156200149457600080fd5b9392505050565b5050565b600082620014b05750600062000dac565b82820282848281620014be57fe5b04146200149457600080fd5b600082821115620014da57600080fd5b50900390565b82805482825590600052602060002090810192821562001538579160200282015b828111156200153857825182546001600160a01b0319166001600160a01b0390911617825560209092019160019091019062001501565b50620015469291506200162f565b5090565b828054600181600116156101000203166002900490600052602060002090601f01602090048101928262001582576000855562001538565b82601f106200159d57805160ff191683800117855562001538565b8280016001018555821562001538579182015b8281111562001538578251825591602001919060010190620015b0565b6040518060200160405280606081525090565b6040518060a0016040528060006001600160a01b03168152602001606081526020016000815260200160006001600160a01b03168152602001600081525090565b6111f38062001e3b83390190565b5b8082111562001546576000815560010162001630565b80356001600160a01b0381168114620008ea57600080fd5b60008083601f84011262001670578182fd5b50813567ffffffffffffffff81111562001688578182fd5b6020830191508360208083028501011115620016a357600080fd5b9250929050565b600060208284031215620016bc578081fd5b620014948262001646565b60008060008060008060008060a0898b031215620016e3578384fd5b620016ee8962001646565b975060208901359650604089013567ffffffffffffffff8082111562001712578586fd5b818b0191508b601f83011262001726578586fd5b81358181111562001735578687fd5b8c602082850101111562001747578687fd5b6020830198508097505060608b013591508082111562001765578586fd5b620017738c838d016200165e565b909650945060808b01359150808211156200178c578384fd5b506200179b8b828c016200165e565b999c989b5096995094979396929594505050565b60008060408385031215620017c2578182fd5b823567ffffffffffffffff811115620017d9578283fd5b8301601f81018513620017ea578283fd5b8035602062001803620017fd8362001d73565b62001d4e565b82815281810190848301838502860184018a101562001820578788fd5b8795505b848610156200184457803583526001959095019491830191830162001824565b50955062001856905086820162001646565b93505050509250929050565b60006020828403121562001874578081fd5b8151801515811462001494578182fd5b60006020828403121562001896578081fd5b5035919050565b600060208284031215620018af578081fd5b5051919050565b60008060408385031215620018c9578182fd5b82359150620018db6020840162001646565b90509250929050565b60008060408385031215620018f7578182fd5b50508035926020909101359150565b6000806000606084860312156200191b578283fd5b8335925060208401359150620019346040850162001646565b90509250925092565b6001600160a01b03169052565b60008284528282602086013780602084860101526020601f19601f85011685010190509392505050565b60008151808452815b818110156200199b576020818501810151868301820152016200197d565b81811115620019ad5782602083870101525b50601f01601f19169290920160200192915050565b6001600160a01b0391909116815260200190565b6001600160a01b039384168152919092166020820152604081019190915260600190565b6001600160a01b03929092168252602082015260400190565b901515815260200190565b60006060825262001a33606083018662001974565b828103602084015262001a47818662001974565b91505060018060a01b0383166040830152949350505050565b60208082526056908201527f4f6e6c792074686520547275737465644d61726b6574466163746f7279206f7760408201527f6e65722063616e207265736f6c766520746865206d61726b65742c207573696e60608201527519c81d1c9d5cdd195914995cdbdb1d9953585c9ad95d60521b608082015260a00190565b6020808252604b908201527f536861726573206d75737420626520626f74682067726561746572207468616e60408201527f20286f7220657175616c20746f2920616e6420646976697369626c652062792060608201526a39b430b932a330b1ba37b960a91b608082015260a00190565b6020808252600e908201526d139bc81cdd58da081b585c9ad95d60921b604082015260600190565b600060208252825160208084015262001b92604084018262001974565b949350505050565b602080825282516001600160a01b03908116838301528382015160a06040850152805160c08501819052600093929183019190849060e08701905b8083101562001bf95784518416825293850193600192909201919085019062001bd5565b50604088015160608801526060880151945062001c1a60808801866200193d565b608088015160a0880152809550505050505092915050565b90815260200190565b9182526001600160a01b0316602082015260400190565b6000888252602060018060a01b0389168184015287604084015260a0606084015262001c8360a0840187896200194a565b83810360808501528481528181018286028201830187855b8881101562001d0e57848303601f190184528135368b9003601e1901811262001cc2578788fd5b8a01803567ffffffffffffffff81111562001cdb578889fd5b8036038c131562001cea578889fd5b62001cf985828a85016200194a565b95880195945050509085019060010162001c9b565b50909d9c50505050505050505050505050565b918252602082015260400190565b92835260208301919091526001600160a01b0316604082015260600190565b60405181810167ffffffffffffffff8111828210171562001d6b57fe5b604052919050565b600067ffffffffffffffff82111562001d8857fe5b5060209081020190565b600062001da3620017fd8462001d73565b8381526020808201919084845b8781101562001e2e5781358701601f368183011262001dcd578788fd5b813567ffffffffffffffff81111562001de257fe5b62001df5818301601f1916870162001d4e565b9150808252368682850101111562001e0b578889fd5b808684018784013781018501889052865250938201939082019060010162001db0565b5091969550505050505056fe60806040523480156200001157600080fd5b50604051620011f3380380620011f3833981810160405260608110156200003757600080fd5b81019080805160405193929190846401000000008211156200005857600080fd5b9083019060208201858111156200006e57600080fd5b82516401000000008111828201881017156200008957600080fd5b82525081516020918201929091019080838360005b83811015620000b85781810151838201526020016200009e565b50505050905090810190601f168015620000e65780820380516001836020036101000a031916815260200191505b50604052602001805160405193929190846401000000008211156200010a57600080fd5b9083019060208201858111156200012057600080fd5b82516401000000008111828201881017156200013b57600080fd5b82525081516020918201929091019080838360005b838110156200016a57818101518382015260200162000150565b50505050905090810190601f168015620001985780820380516001836020036101000a031916815260200191505b5060405260209081015185519093508592508491620001bd9160039185019062000219565b508051620001d390600490602084019062000219565b5050600580546001600160a01b039390931661010090810233909102610100600160a81b031960ff199095166012178516179093169290921790915550620002c5915050565b828054600181600116156101000203166002900490600052602060002090601f0160209004810192826200025157600085556200029c565b82601f106200026c57805160ff19168380011785556200029c565b828001600101855582156200029c579182015b828111156200029c5782518255916020019190600101906200027f565b50620002aa929150620002ae565b5090565b5b80821115620002aa5760008155600101620002af565b610f1e80620002d56000396000f3fe608060405234801561001057600080fd5b506004361061010b5760003560e01c806370a08231116100a2578063a457c2d711610071578063a457c2d714610343578063a9059cbb1461036f578063c024cd261461039b578063dd62ed3e146103c7578063f2fde38b146103f55761010b565b806370a08231146102cb57806371297784146102f1578063893d20e81461031757806395d89b411461033b5761010b565b806323b872dd116100de57806323b872dd1461021f578063313ce56714610255578063395093511461027357806342986e131461029f5761010b565b806306fdde0314610110578063095ea7b31461018d5780630fb66557146101cd57806318160ddd14610205575b600080fd5b61011861041b565b6040805160208082528351818301528351919283929083019185019080838360005b8381101561015257818101518382015260200161013a565b50505050905090810190601f16801561017f5780820380516001836020036101000a031916815260200191505b509250505060405180910390f35b6101b9600480360360408110156101a357600080fd5b506001600160a01b0381351690602001356104b1565b604080519115158252519081900360200190f35b610203600480360360608110156101e357600080fd5b506001600160a01b038135811691602081013590911690604001356104ce565b005b61020d6104fa565b60408051918252519081900360200190f35b6101b96004803603606081101561023557600080fd5b506001600160a01b03813581169160208101359091169060400135610500565b61025d610587565b6040805160ff9092168252519081900360200190f35b6101b96004803603604081101561028957600080fd5b506001600160a01b038135169060200135610590565b610203600480360360408110156102b557600080fd5b506001600160a01b0381351690602001356105de565b61020d600480360360208110156102e157600080fd5b50356001600160a01b0316610608565b61020d6004803603602081101561030757600080fd5b50356001600160a01b0316610623565b61031f61065f565b604080516001600160a01b039092168252519081900360200190f35b610118610673565b6101b96004803603604081101561035957600080fd5b506001600160a01b0381351690602001356106d4565b6101b96004803603604081101561038557600080fd5b506001600160a01b03813516906020013561073c565b610203600480360360408110156103b157600080fd5b506001600160a01b038135169060200135610750565b61020d600480360360408110156103dd57600080fd5b506001600160a01b0381358116916020013516610776565b6101b96004803603602081101561040b57600080fd5b50356001600160a01b03166107a1565b60038054604080516020601f60026000196101006001881615020190951694909404938401819004810282018101909252828152606093909290918301828280156104a75780601f1061047c576101008083540402835291602001916104a7565b820191906000526020600020905b81548152906001019060200180831161048a57829003601f168201915b5050505050905090565b60006104c56104be610818565b848461081c565b50600192915050565b60055461010090046001600160a01b031633146104ea57600080fd5b6104f5838383610908565b505050565b60025490565b600061050d848484610908565b61057d84610519610818565b61057885604051806060016040528060288152602001610e32602891396001600160a01b038a16600090815260016020526040812090610557610818565b6001600160a01b031681526020810191909152604001600020549190610a63565b61081c565b5060019392505050565b60055460ff1690565b60006104c561059d610818565b8461057885600160006105ae610818565b6001600160a01b03908116825260208083019390935260409182016000908120918c168152925290205490610afa565b60055461010090046001600160a01b031633146105fa57600080fd5b6106048282610b5b565b5050565b6001600160a01b031660009081526020819052604090205490565b60055460009061010090046001600160a01b0316331461064257600080fd5b600061064d83610608565b90506106598382610b5b565b92915050565b60055461010090046001600160a01b031690565b60048054604080516020601f60026000196101006001881615020190951694909404938401819004810282018101909252828152606093909290918301828280156104a75780601f1061047c576101008083540402835291602001916104a7565b60006104c56106e1610818565b8461057885604051806060016040528060258152602001610ec4602591396001600061070b610818565b6001600160a01b03908116825260208083019390935260409182016000908120918d16815292529020549190610a63565b60006104c5610749610818565b8484610908565b60055461010090046001600160a01b0316331461076c57600080fd5b6106048282610c57565b6001600160a01b03918216600090815260016020908152604080832093909416825291909152205490565b60055460009061010090046001600160a01b031633146107c057600080fd5b6001600160a01b0382166107d357600080fd5b6005546107ee9061010090046001600160a01b031683610604565b50600580546001600160a01b03831661010002610100600160a81b03199091161790556001919050565b3390565b6001600160a01b0383166108615760405162461bcd60e51b8152600401808060200182810382526024815260200180610ea06024913960400191505060405180910390fd5b6001600160a01b0382166108a65760405162461bcd60e51b8152600401808060200182810382526022815260200180610dea6022913960400191505060405180910390fd5b6001600160a01b03808416600081815260016020908152604080832094871680845294825291829020859055815185815291517f8c5be1e5ebec7d5bd14f71427d1e84f3dd0314c0f7b2291e5b200ac8c7c3b9259281900390910190a3505050565b6001600160a01b03831661094d5760405162461bcd60e51b8152600401808060200182810382526025815260200180610e7b6025913960400191505060405180910390fd5b6001600160a01b0382166109925760405162461bcd60e51b8152600401808060200182810382526023815260200180610da56023913960400191505060405180910390fd5b61099d8383836104f5565b6109da81604051806060016040528060268152602001610e0c602691396001600160a01b0386166000908152602081905260409020549190610a63565b6001600160a01b038085166000908152602081905260408082209390935590841681522054610a099082610afa565b6001600160a01b038084166000818152602081815260409182902094909455805185815290519193928716927fddf252ad1be2c89b69c2b068fc378daa952ba7f163c4a11628f55a4df523b3ef92918290030190a3505050565b60008184841115610af25760405162461bcd60e51b81526004018080602001828103825283818151815260200191508051906020019080838360005b83811015610ab7578181015183820152602001610a9f565b50505050905090810190601f168015610ae45780820380516001836020036101000a031916815260200191505b509250505060405180910390fd5b505050900390565b600082820183811015610b54576040805162461bcd60e51b815260206004820152601b60248201527f536166654d6174683a206164646974696f6e206f766572666c6f770000000000604482015290519081900360640190fd5b9392505050565b6001600160a01b038216610ba05760405162461bcd60e51b8152600401808060200182810382526021815260200180610e5a6021913960400191505060405180910390fd5b610bac826000836104f5565b610be981604051806060016040528060228152602001610dc8602291396001600160a01b0385166000908152602081905260409020549190610a63565b6001600160a01b038316600090815260208190526040902055600254610c0f9082610d47565b6002556040805182815290516000916001600160a01b038516917fddf252ad1be2c89b69c2b068fc378daa952ba7f163c4a11628f55a4df523b3ef9181900360200190a35050565b6001600160a01b038216610cb2576040805162461bcd60e51b815260206004820152601f60248201527f45524332303a206d696e7420746f20746865207a65726f206164647265737300604482015290519081900360640190fd5b610cbe600083836104f5565b600254610ccb9082610afa565b6002556001600160a01b038216600090815260208190526040902054610cf19082610afa565b6001600160a01b0383166000818152602081815260408083209490945583518581529351929391927fddf252ad1be2c89b69c2b068fc378daa952ba7f163c4a11628f55a4df523b3ef9281900390910190a35050565b600082821115610d9e576040805162461bcd60e51b815260206004820152601e60248201527f536166654d6174683a207375627472616374696f6e206f766572666c6f770000604482015290519081900360640190fd5b5090039056fe45524332303a207472616e7366657220746f20746865207a65726f206164647265737345524332303a206275726e20616d6f756e7420657863656564732062616c616e636545524332303a20617070726f766520746f20746865207a65726f206164647265737345524332303a207472616e7366657220616d6f756e7420657863656564732062616c616e636545524332303a207472616e7366657220616d6f756e74206578636565647320616c6c6f77616e636545524332303a206275726e2066726f6d20746865207a65726f206164647265737345524332303a207472616e736665722066726f6d20746865207a65726f206164647265737345524332303a20617070726f76652066726f6d20746865207a65726f206164647265737345524332303a2064656372656173656420616c6c6f77616e63652062656c6f77207a65726fa2646970667358221220b60007ecbeec6564473914d3b4f0b97a220a5bfda24f70f0ab97a0af64be508e64736f6c63430007060033a2646970667358221220250cf5b6d9563541b7e9d0c1fc18804651c4f673826e5c2afdb2bbd9db3f43ec64736f6c63430007060033",
  "linkReferences": {},
  "deployedLinkReferences": {}
}