{
  "_format": "hh-sol-artifact-1",
  "contractName": "SportsLinkMarketFactory",
  "sourceName": "contracts/turbo/SportsLinkMarketFactory.sol",
  "abi": [
    {
      "inputs": [
        {
          "internalType": "address",
          "name": "_owner",
          "type": "address"
        },
        {
          "internalType": "contract IERC20Full",
          "name": "_collateral",
          "type": "address"
        },
        {
          "internalType": "uint256",
          "name": "_shareFactor",
          "type": "uint256"
        },
        {
          "internalType": "contract FeePot",
          "name": "_feePot",
          "type": "address"
        },
        {
          "internalType": "uint256",
          "name": "_stakerFee",
          "type": "uint256"
        },
        {
          "internalType": "uint256",
          "name": "_creatorFee",
          "type": "uint256"
        }
      ],
      "stateMutability": "nonpayable",
      "type": "constructor"
    },
    {
      "anonymous": false,
      "inputs": [
        {
          "indexed": false,
          "internalType": "uint256",
          "name": "id",
          "type": "uint256"
        },
        {
          "indexed": false,
          "internalType": "address",
          "name": "creator",
          "type": "address"
        },
        {
          "indexed": false,
          "internalType": "uint256",
          "name": "endTime",
          "type": "uint256"
        },
        {
          "indexed": false,
          "internalType": "enum SportsLinkMarketFactory.MarketType",
          "name": "marketType",
          "type": "uint8"
        },
        {
          "indexed": true,
          "internalType": "uint256",
          "name": "eventId",
          "type": "uint256"
        },
        {
          "indexed": false,
          "internalType": "uint256",
          "name": "homeTeamId",
          "type": "uint256"
        },
        {
          "indexed": false,
          "internalType": "uint256",
          "name": "awayTeamId",
          "type": "uint256"
        },
        {
          "indexed": false,
          "internalType": "uint256",
          "name": "estimatedStarTime",
          "type": "uint256"
        },
        {
          "indexed": false,
          "internalType": "int256",
          "name": "score",
          "type": "int256"
        }
      ],
      "name": "MarketCreated",
      "type": "event"
    },
    {
      "anonymous": false,
      "inputs": [
        {
          "indexed": false,
          "internalType": "uint256",
          "name": "id",
          "type": "uint256"
        },
        {
          "indexed": false,
          "internalType": "address",
          "name": "winner",
          "type": "address"
        }
      ],
      "name": "MarketResolved",
      "type": "event"
    },
    {
      "anonymous": false,
      "inputs": [
        {
          "indexed": false,
          "internalType": "uint256",
          "name": "id",
          "type": "uint256"
        },
        {
          "indexed": false,
          "internalType": "uint256",
          "name": "amount",
          "type": "uint256"
        },
        {
          "indexed": false,
          "internalType": "address",
          "name": "receiver",
          "type": "address"
        }
      ],
      "name": "SharesBurned",
      "type": "event"
    },
    {
      "anonymous": false,
      "inputs": [
        {
          "indexed": false,
          "internalType": "uint256",
          "name": "id",
          "type": "uint256"
        },
        {
          "indexed": false,
          "internalType": "uint256",
          "name": "amount",
          "type": "uint256"
        },
        {
          "indexed": false,
          "internalType": "address",
          "name": "receiver",
          "type": "address"
        }
      ],
      "name": "SharesMinted",
      "type": "event"
    },
    {
      "anonymous": false,
      "inputs": [
        {
          "indexed": false,
          "internalType": "uint256",
          "name": "id",
          "type": "uint256"
        },
        {
          "indexed": false,
          "internalType": "uint256",
          "name": "amount",
          "type": "uint256"
        },
        {
          "indexed": true,
          "internalType": "address",
          "name": "receiver",
          "type": "address"
        }
      ],
      "name": "WinningsClaimed",
      "type": "event"
    },
    {
      "inputs": [
        {
          "internalType": "address",
          "name": "",
          "type": "address"
        }
      ],
      "name": "accumulatedCreatorFees",
      "outputs": [
        {
          "internalType": "uint256",
          "name": "",
          "type": "uint256"
        }
      ],
      "stateMutability": "view",
      "type": "function"
    },
    {
      "inputs": [
        {
          "internalType": "uint256",
          "name": "_id",
          "type": "uint256"
        },
        {
          "internalType": "uint256",
          "name": "_sharesToBurn",
          "type": "uint256"
        },
        {
          "internalType": "address",
          "name": "_receiver",
          "type": "address"
        }
      ],
      "name": "burnShares",
      "outputs": [
        {
          "internalType": "uint256",
          "name": "",
          "type": "uint256"
        }
      ],
      "stateMutability": "nonpayable",
      "type": "function"
    },
    {
      "inputs": [
        {
          "internalType": "uint256",
          "name": "_shares",
          "type": "uint256"
        }
      ],
      "name": "calcCost",
      "outputs": [
        {
          "internalType": "uint256",
          "name": "",
          "type": "uint256"
        }
      ],
      "stateMutability": "view",
      "type": "function"
    },
    {
      "inputs": [
        {
          "internalType": "uint256",
          "name": "_collateralIn",
          "type": "uint256"
        }
      ],
      "name": "calcShares",
      "outputs": [
        {
          "internalType": "uint256",
          "name": "",
          "type": "uint256"
        }
      ],
      "stateMutability": "view",
      "type": "function"
    },
    {
      "inputs": [
        {
          "internalType": "address",
          "name": "_receiver",
          "type": "address"
        }
      ],
      "name": "claimCreatorFees",
      "outputs": [],
      "stateMutability": "nonpayable",
      "type": "function"
    },
    {
      "inputs": [
        {
          "internalType": "uint256[]",
          "name": "_ids",
          "type": "uint256[]"
        },
        {
          "internalType": "address",
          "name": "_receiver",
          "type": "address"
        }
      ],
      "name": "claimManyWinnings",
      "outputs": [
        {
          "internalType": "uint256",
          "name": "",
          "type": "uint256"
        }
      ],
      "stateMutability": "nonpayable",
      "type": "function"
    },
    {
      "inputs": [
        {
          "internalType": "uint256",
          "name": "_id",
          "type": "uint256"
        },
        {
          "internalType": "address",
          "name": "_receiver",
          "type": "address"
        }
      ],
      "name": "claimWinnings",
      "outputs": [
        {
          "internalType": "uint256",
          "name": "",
          "type": "uint256"
        }
      ],
      "stateMutability": "nonpayable",
      "type": "function"
    },
    {
      "inputs": [],
      "name": "collateral",
      "outputs": [
        {
          "internalType": "contract IERC20Full",
          "name": "",
          "type": "address"
        }
      ],
      "stateMutability": "view",
      "type": "function"
    },
    {
      "inputs": [
        {
          "internalType": "address",
          "name": "_creator",
          "type": "address"
        },
        {
          "internalType": "uint256",
          "name": "_endTime",
          "type": "uint256"
        },
        {
          "internalType": "uint256",
          "name": "_eventId",
          "type": "uint256"
        },
        {
          "internalType": "uint256",
          "name": "_homeTeamId",
          "type": "uint256"
        },
        {
          "internalType": "uint256",
          "name": "_awayTeamId",
          "type": "uint256"
        },
        {
          "internalType": "int256",
          "name": "_homeSpread",
          "type": "int256"
        },
        {
          "internalType": "int256",
          "name": "_overUnderTotal",
          "type": "int256"
        },
        {
          "internalType": "uint256",
          "name": "_estimatedStartTime",
          "type": "uint256"
        }
      ],
      "name": "createMarket",
      "outputs": [
        {
          "internalType": "uint256[3]",
          "name": "_ids",
          "type": "uint256[3]"
        }
      ],
      "stateMutability": "nonpayable",
      "type": "function"
    },
    {
      "inputs": [],
      "name": "creatorFee",
      "outputs": [
        {
          "internalType": "uint256",
          "name": "",
          "type": "uint256"
        }
      ],
      "stateMutability": "view",
      "type": "function"
    },
    {
      "inputs": [],
      "name": "feePot",
      "outputs": [
        {
          "internalType": "contract FeePot",
          "name": "",
          "type": "address"
        }
      ],
      "stateMutability": "view",
      "type": "function"
    },
    {
      "inputs": [
        {
          "internalType": "uint256",
          "name": "_id",
          "type": "uint256"
        }
      ],
      "name": "getMarket",
      "outputs": [
        {
          "components": [
            {
              "internalType": "address",
              "name": "creator",
              "type": "address"
            },
            {
              "internalType": "contract OwnedERC20[]",
              "name": "shareTokens",
              "type": "address[]"
            },
            {
              "internalType": "uint256",
              "name": "endTime",
              "type": "uint256"
            },
            {
              "internalType": "contract OwnedERC20",
              "name": "winner",
              "type": "address"
            },
            {
              "internalType": "uint256",
              "name": "creatorFee",
              "type": "uint256"
            }
          ],
          "internalType": "struct AbstractMarketFactory.Market",
          "name": "",
          "type": "tuple"
        }
      ],
      "stateMutability": "view",
      "type": "function"
    },
    {
      "inputs": [
        {
          "internalType": "uint256",
          "name": "_marketId",
          "type": "uint256"
        }
      ],
      "name": "getMarketDetails",
      "outputs": [
        {
          "components": [
            {
              "internalType": "uint256",
              "name": "eventId",
              "type": "uint256"
            },
            {
              "internalType": "uint256",
              "name": "homeTeamId",
              "type": "uint256"
            },
            {
              "internalType": "uint256",
              "name": "awayTeamId",
              "type": "uint256"
            },
            {
              "internalType": "uint256",
              "name": "estimatedStartTime",
              "type": "uint256"
            },
            {
              "internalType": "enum SportsLinkMarketFactory.MarketType",
              "name": "marketType",
              "type": "uint8"
            },
            {
              "internalType": "int256",
              "name": "value0",
              "type": "int256"
            }
          ],
          "internalType": "struct SportsLinkMarketFactory.MarketDetails",
          "name": "",
          "type": "tuple"
        }
      ],
      "stateMutability": "view",
      "type": "function"
    },
    {
      "inputs": [],
      "name": "getOwner",
      "outputs": [
        {
          "internalType": "address",
          "name": "",
          "type": "address"
        }
      ],
      "stateMutability": "view",
      "type": "function"
    },
    {
      "inputs": [
        {
          "internalType": "uint256",
          "name": "_eventId",
          "type": "uint256"
        }
      ],
      "name": "isEventRegistered",
      "outputs": [
        {
          "internalType": "bool",
          "name": "",
          "type": "bool"
        }
      ],
      "stateMutability": "view",
      "type": "function"
    },
    {
      "inputs": [
        {
          "internalType": "uint256",
          "name": "_eventId",
          "type": "uint256"
        }
      ],
      "name": "isEventResolved",
      "outputs": [
        {
          "internalType": "bool",
          "name": "",
          "type": "bool"
        }
      ],
      "stateMutability": "view",
      "type": "function"
    },
    {
      "inputs": [
        {
          "internalType": "uint256",
          "name": "_id",
          "type": "uint256"
        }
      ],
      "name": "isMarketResolved",
      "outputs": [
        {
          "internalType": "bool",
          "name": "",
          "type": "bool"
        }
      ],
      "stateMutability": "view",
      "type": "function"
    },
    {
      "inputs": [],
      "name": "marketCount",
      "outputs": [
        {
          "internalType": "uint256",
          "name": "",
          "type": "uint256"
        }
      ],
      "stateMutability": "view",
      "type": "function"
    },
    {
      "inputs": [
        {
          "internalType": "uint256",
          "name": "_id",
          "type": "uint256"
        },
        {
          "internalType": "uint256",
          "name": "_shareToMint",
          "type": "uint256"
        },
        {
          "internalType": "address",
          "name": "_receiver",
          "type": "address"
        }
      ],
      "name": "mintShares",
      "outputs": [],
      "stateMutability": "nonpayable",
      "type": "function"
    },
    {
      "inputs": [
        {
          "internalType": "uint256",
          "name": "",
          "type": "uint256"
        }
      ],
      "name": "resolveMarket",
      "outputs": [],
      "stateMutability": "pure",
      "type": "function"
    },
    {
      "inputs": [],
      "name": "shareFactor",
      "outputs": [
        {
          "internalType": "uint256",
          "name": "",
          "type": "uint256"
        }
      ],
      "stateMutability": "view",
      "type": "function"
    },
    {
      "inputs": [],
      "name": "stakerFee",
      "outputs": [
        {
          "internalType": "uint256",
          "name": "",
          "type": "uint256"
        }
      ],
      "stateMutability": "view",
      "type": "function"
    },
    {
      "inputs": [
        {
          "internalType": "address",
          "name": "_newOwner",
          "type": "address"
        }
      ],
      "name": "transferOwnership",
      "outputs": [
        {
          "internalType": "bool",
          "name": "",
          "type": "bool"
        }
      ],
      "stateMutability": "nonpayable",
      "type": "function"
    },
    {
      "inputs": [
        {
          "internalType": "uint256",
          "name": "_eventId",
          "type": "uint256"
        },
        {
          "internalType": "int256",
          "name": "_homeScore",
          "type": "int256"
        },
        {
          "internalType": "int256",
          "name": "_awayScore",
          "type": "int256"
        }
      ],
      "name": "trustedResolveMarkets",
      "outputs": [],
      "stateMutability": "nonpayable",
      "type": "function"
    }
  ],
  "bytecode": "0x60806040523480156200001157600080fd5b5060405162003c4538038062003c45833981016040819052620000349162000131565b600080546001600160a01b038088166001600160a01b03199283168117909355600587905560018054918716919092161790556002839055600382905560405163095ea7b360e01b8152869186918691869186919063095ea7b390620000a390869060001990600401620001c9565b602060405180830381600087803b158015620000be57600080fd5b505af1158015620000d3573d6000803e3d6000fd5b505050506040513d601f19601f82011682018060405250810190620000f99190620001a0565b505060078054336001600160a01b031991821617166001600160a01b039b909b169a909a1790995550620001fb975050505050505050565b60008060008060008060c087890312156200014a578182fd5b86516200015781620001e2565b60208801519096506200016a81620001e2565b6040880151606089015191965094506200018481620001e2565b809350506080870151915060a087015190509295509295509295565b600060208284031215620001b2578081fd5b81518015158114620001c2578182fd5b9392505050565b6001600160a01b03929092168252602082015260400190565b6001600160a01b0381168114620001f857600080fd5b50565b613a3a806200020b6000396000f3fe60806040523480156200001157600080fd5b5060043610620001785760003560e01c8063a179449611620000d5578063d93674d71162000087578063d93674d71462000330578063e5678dfa1462000347578063e88958dc146200035e578063eb44fdd31462000368578063ec979082146200038e578063f2fde38b14620003985762000178565b8063a179449614620002a4578063b06c1ba314620002bb578063b65ad5fd14620002e1578063cc87adea14620002f8578063d6ae6e44146200030f578063d8dfeb4514620003265762000178565b806353ac55f5116200012f57806353ac55f514620002165780636399d03d146200023c5780637641ab011462000253578063893d20e8146200025d578063971042231462000267578063992c9079146200028d5762000178565b80631e08aae2146200017d578063221fff8114620001ac57806335a9cdad14620001c5578063473a6d5214620001dc5780634b2d9ffc14620001f35780634c9f66c714620001fd575b600080fd5b620001946200018e366004620021d5565b620003af565b604051620001a3919062002772565b60405180910390f35b620001c3620001bd366004620023c8565b620003c1565b005b62000194620001d6366004620023c8565b62000631565b62000194620001ed3660046200233c565b6200080d565b6200019462000860565b6200020762000866565b604051620001a3919062002469565b6200022d620002273660046200233c565b62000875565b604051620001a39190620024ed565b620001c36200024d3660046200233c565b6200094b565b6200019462000965565b620002076200096b565b6200027e62000278366004620021f2565b6200097a565b604051620001a39190620024ba565b620001946200029e3660046200236e565b62000a2f565b6200022d620002b53660046200233c565b62000c0b565b620002d2620002cc3660046200233c565b62000c2f565b604051620001a391906200268d565b6200022d620002f23660046200233c565b62000cbf565b62000194620003093660046200233c565b62000cd6565b620001c362000320366004620021d5565b62000cdd565b6200020762000d80565b620001c3620003413660046200239c565b62000d8f565b620001946200035836600462002250565b62000e2b565b6200019462000e79565b6200037f620003793660046200233c565b62000e7f565b604051620001a39190620026da565b6200019462000f98565b6200022d620003a9366004620021d5565b62000f9e565b60046020526000908152604090205481565b600060068481548110620003d157fe5b60009182526020918290206040805160a081018252600590930290910180546001600160a01b031683526001810180548351818702810187019094528084529394919385830193928301828280156200045457602002820191906000526020600020905b81546001600160a01b0316815260019091019060200180831162000435575b50505091835250506002820154602082015260038201546001600160a01b0316604080830191909152600490920154606090910152810151909150620004b75760405162461bcd60e51b8152600401620004ae906200262e565b60405180910390fd5b6000620004c4846200080d565b6000546040516323b872dd60e01b81529192506001600160a01b0316906323b872dd90620004fb903390309086906004016200247d565b602060405180830381600087803b1580156200051657600080fd5b505af11580156200052b573d6000803e3d6000fd5b505050506040513d601f19601f820116820180604052508101906200055191906200231a565b5060005b826020015151811015620005ec57826020015181815181106200057457fe5b60200260200101516001600160a01b031663c024cd2685876040518363ffffffff1660e01b8152600401620005ab929190620024a1565b600060405180830381600087803b158015620005c657600080fd5b505af1158015620005db573d6000803e3d6000fd5b505060019092019150620005559050565b507fd81c0442e10068a9818f3aa093c9ccb804584690df572d7df3da2d892a6973f28585856040516200062293929190620027f2565b60405180910390a15050505050565b600080600685815481106200064257fe5b60009182526020918290206040805160a081018252600590930290910180546001600160a01b03168352600181018054835181870281018701909452808452939491938583019392830182828015620006c557602002820191906000526020600020905b81546001600160a01b03168152600190910190602001808311620006a6575b50505091835250506002820154602082015260038201546001600160a01b03166040808301919091526004909201546060909101528101519091506200071f5760405162461bcd60e51b8152600401620004ae906200262e565b60005b816020015151811015620007b957816020015181815181106200074157fe5b60200260200101516001600160a01b03166342986e1333876040518363ffffffff1660e01b815260040162000778929190620024a1565b600060405180830381600087803b1580156200079357600080fd5b505af1158015620007a8573d6000803e3d6000fd5b505060019092019150620007229050565b507fb6fdb729b2ed801daf629f0ab713e4a7a73619505790f6f27fd92d6f2c9688d7858533604051620007ef93929190620027f2565b60405180910390a1620008048585856200100a565b95945050505050565b600060055482101580156200082c575060055482816200082957fe5b06155b6200084b5760405162461bcd60e51b8152600401620004ae90620025bd565b60055482816200085757fe5b0490505b919050565b60025481565b6001546001600160a01b031681565b600080600683815481106200088657fe5b60009182526020918290206040805160a081018252600590930290910180546001600160a01b031683526001810180548351818702810187019094528084529394919385830193928301828280156200090957602002820191906000526020600020905b81546001600160a01b03168152600190910190602001808311620008ea575b50505091835250506002820154602082015260038201546001600160a01b03908116604083015260049092015460609182015291909101511615159392505050565b60405162461bcd60e51b8152600401620004ae906200253a565b60055481565b6007546001600160a01b031690565b620009846200205c565b6007546001600160a01b031633146200099c57600080fd5b620009a78762000cbf565b15620009c75760405162461bcd60e51b8152600401620004ae9062002656565b620009d789898989898762001287565b8152620009ea8989898989878a6200154d565b602082015262000a008989898989878962001812565b604080830191909152600088815260096020522062000a22908260036200207a565b5098975050505050505050565b600062000a3c8362000875565b62000a4c5762000a4c836200094b565b60006006848154811062000a5c57fe5b60009182526020918290206040805160a081018252600590930290910180546001600160a01b0316835260018101805483518187028101870190945280845293949193858301939283018282801562000adf57602002820191906000526020600020905b81546001600160a01b0316815260019091019060200180831162000ac0575b50505091835250506002820154602082015260038201546001600160a01b03908116604080840191909152600493840154606093840152918401519151631c4a5de160e21b815293945060009391169163712977849162000b439133910162002469565b602060405180830381600087803b15801562000b5e57600080fd5b505af115801562000b73573d6000803e3d6000fd5b505050506040513d601f19601f8201168201806040525081019062000b99919062002355565b9050600554600554828162000baa57fe5b04029050336001600160a01b03167f2bdd7a5109193ce6270ec3b4afcf4ccd4a06c27742ba11f660498cb41433bb00868360405162000beb929190620027e4565b60405180910390a262000c008582866200100a565b925050505b92915050565b60008181526009602052604081206002015462000c288162000875565b9392505050565b62000c39620020bd565b600860008381526020019081526020016000206040518060c0016040529081600082015481526020016001820154815260200160028201548152602001600382015481526020016004820160009054906101000a900460ff16600281111562000c9e57fe5b600281111562000caa57fe5b81526020016005820154815250509050919050565b600090815260096020526040902060020154151590565b6005540290565b3360009081526004602081905260408083208054908490559254905163a9059cbb60e01b81526001600160a01b039091169163a9059cbb9162000d25918691869101620024a1565b602060405180830381600087803b15801562000d4057600080fd5b505af115801562000d55573d6000803e3d6000fd5b505050506040513d601f19601f8201168201806040525081019062000d7b91906200231a565b505050565b6000546001600160a01b031681565b6007546001600160a01b0316331462000da757600080fd5b600083815260096020526040808220815160608101928390529160039082845b81548152602001906001019080831162000dc7575050505050905062000e018160006003811062000df457fe5b6020020151848462001ac2565b602081015162000e1390848462001c14565b604081015162000e2590848462001df6565b50505050565b600080805b845181101562000e715762000e6662000e5e86838151811062000e4f57fe5b60200260200101518662000a2f565b839062001e81565b915060010162000e30565b509392505050565b60035481565b62000e89620020ff565b60065482111562000ece57506040805160a08101825260008082528251818152602080820185528301529181018290526060810182905260808101919091526200085b565b6006828154811062000edc57fe5b60009182526020918290206040805160a081018252600590930290910180546001600160a01b0316835260018101805483518187028101870190945280845293949193858301939283018282801562000f5f57602002820191906000526020600020905b81546001600160a01b0316815260019091019060200180831162000f40575b50505091835250506002820154602082015260038201546001600160a01b0316604082015260049091015460609091015290506200085b565b60065490565b6007546000906001600160a01b0316331462000fb957600080fd5b6001600160a01b03821662000fcd57600080fd5b60075462000fe5906001600160a01b03168362001e94565b50600780546001600160a01b0383166001600160a01b03199091161790556001919050565b60008062001018846200080d565b90506000600686815481106200102a57fe5b60009182526020918290206040805160a081018252600590930290910180546001600160a01b03168352600181018054835181870281018701909452808452939491938583019392830182828015620010ad57602002820191906000526020600020905b81546001600160a01b031681526001909101906020018083116200108e575b50505091835250506002820154602082015260038201546001600160a01b031660408201526004909101546060909101526080810151909150600090670de0b6b3a764000090620010ff908562001e98565b816200110757fe5b0490506000670de0b6b3a76400006200112c8560025462001e9890919063ffffffff16565b816200113457fe5b84516001600160a01b039081166000908152600460208190526040918290208054880190556001549151630ebdac0960e41b8152949093049450169163ebdac09091620011849185910162002772565b602060405180830381600087803b1580156200119f57600080fd5b505af1158015620011b4573d6000803e3d6000fd5b505050506040513d601f19601f82011682018060405250810190620011da91906200231a565b506000546001600160a01b031663a9059cbb876200120584620011fe898862001ec3565b9062001ec3565b6040518363ffffffff1660e01b815260040162001224929190620024a1565b602060405180830381600087803b1580156200123f57600080fd5b505af115801562001254573d6000803e3d6000fd5b505050506040513d601f19601f820116820180604052508101906200127a91906200231a565b5092979650505050505050565b60408051600380825260808201909252600091829190816020015b6060815260200190600190039081620012a25790505090506040518060400160405280600a815260200169139bc810dbdb9d195cdd60b21b81525081600081518110620012eb57fe5b6020026020010181905250604051806040016040528060048152602001634177617960e01b815250816001815181106200132157fe5b602002602001018190525060405180604001604052806004815260200163486f6d6560e01b815250816002815181106200135757fe5b60200260200101819052506000600680549050905060066040518060a001604052808b6001600160a01b031681526020016200139585863062001ed9565b815260208082018c905260006040830181905260035460609093019290925283546001808201865594835291819020835160059093020180546001600160a01b0319166001600160a01b03909316929092178255828101518051939492936200140693850192919091019062002140565b506040820151816002015560608201518160030160006101000a8154816001600160a01b0302191690836001600160a01b031602179055506080820151816004015550506040518060c00160405280888152602001878152602001868152602001858152602001600060028111156200147b57fe5b81526020016000815250600860008381526020019081526020016000206000820151816000015560208201518160010155604082015181600201556060820151816003015560808201518160040160006101000a81548160ff02191690836002811115620014e557fe5b021790555060a08201518160050155905050867fafad6545e5200f9fdf4db34dfca61a9e7d72518593fd5155d11fd69c20e1555f828b8b60008b8b8b60006040516200153998979695949392919062002792565b60405180910390a298975050505050505050565b60408051600380825260808201909252600091829190816020015b6060815260200190600190039081620015685790505090506040518060400160405280600a815260200169139bc810dbdb9d195cdd60b21b81525081600081518110620015b157fe5b6020026020010181905250604051806040016040528060048152602001634177617960e01b81525081600181518110620015e757fe5b602002602001018190525060405180604001604052806004815260200163486f6d6560e01b815250816002815181106200161d57fe5b60200260200101819052506000600680549050905060066040518060a001604052808c6001600160a01b031681526020016200165b85863062001ed9565b815260208082018d905260006040830181905260035460609093019290925283546001808201865594835291819020835160059093020180546001600160a01b0319166001600160a01b0390931692909217825582810151805193949293620016cc93850192919091019062002140565b506040820151816002015560608201518160030160006101000a8154816001600160a01b0302191690836001600160a01b031602179055506080820151816004015550506040518060c00160405280898152602001888152602001878152602001868152602001600160028111156200174157fe5b815260200185815250600860008381526020019081526020016000206000820151816000015560208201518160010155604082015181600201556060820151816003015560808201518160040160006101000a81548160ff02191690836002811115620017aa57fe5b021790555060a08201518160050155905050877fafad6545e5200f9fdf4db34dfca61a9e7d72518593fd5155d11fd69c20e1555f828c8c60018c8c8c8c604051620017fd98979695949392919062002792565b60405180910390a29998505050505050505050565b60408051600380825260808201909252600091829190816020015b60608152602001906001900390816200182d5790505090506040518060400160405280600a815260200169139bc810dbdb9d195cdd60b21b815250816000815181106200187657fe5b60200260200101819052506040518060400160405280600481526020016327bb32b960e11b81525081600181518110620018ac57fe5b6020026020010181905250604051806040016040528060058152602001642ab73232b960d91b81525081600281518110620018e357fe5b60200260200101819052506000600680549050905060066040518060a001604052808c6001600160a01b031681526020016200192185863062001ed9565b815260208082018d905260006040830181905260035460609093019290925283546001808201865594835291819020835160059093020180546001600160a01b0319166001600160a01b03909316929092178255828101518051939492936200199293850192919091019062002140565b506040820151816002015560608201518160030160006101000a8154816001600160a01b0302191690836001600160a01b031602179055506080820151816004015550506040518060c0016040528089815260200188815260200187815260200186815260200160028081111562001a0657fe5b815260200185815250600860008381526020019081526020016000206000820151816000015560208201518160010155604082015181600201556060820151816003015560808201518160040160006101000a81548160ff0219169083600281111562001a6f57fe5b021790555060a08201518160050155905050877fafad6545e5200f9fdf4db34dfca61a9e7d72518593fd5155d11fd69c20e1555f828c8c60028c8c8c8c604051620017fd98979695949392919062002792565b60008183131562001b16576006848154811062001adb57fe5b906000526020600020906005020160010160028154811062001af957fe5b6000918252602090912001546001600160a01b0316905062001b8f565b8183121562001b4b576006848154811062001b2d57fe5b906000526020600020906005020160010160018154811062001af957fe5b6006848154811062001b5957fe5b906000526020600020906005020160010160008154811062001b7757fe5b6000918252602090912001546001600160a01b031690505b806006858154811062001b9e57fe5b906000526020600020906005020160030160006101000a8154816001600160a01b0302191690836001600160a01b031602179055507fc68d106ea6e4bec784925cfd91767212c71ced92adbac107dc364435321113f6848260405162001c069291906200277b565b60405180910390a150505050565b6000838152600860209081526040808320815160c08101835281548152600182015493810193909352600280820154928401929092526003810154606084015260048101549091608084019160ff169081111562001c6e57fe5b600281111562001c7a57fe5b81526005919091015460209091015260a0810151909150600062001c9f858562001fcf565b905060008282131562001cf5576006878154811062001cba57fe5b906000526020600020906005020160010160028154811062001cd857fe5b6000918252602090912001546001600160a01b0316905062001d6e565b8282121562001d2a576006878154811062001d0c57fe5b906000526020600020906005020160010160018154811062001cd857fe5b6006878154811062001d3857fe5b906000526020600020906005020160010160008154811062001d5657fe5b6000918252602090912001546001600160a01b031690505b806006888154811062001d7d57fe5b906000526020600020906005020160030160006101000a8154816001600160a01b0302191690836001600160a01b031602179055507fc68d106ea6e4bec784925cfd91767212c71ced92adbac107dc364435321113f6878260405162001de59291906200277b565b60405180910390a150505050505050565b6000838152600860209081526040808320815160c08101835281548152600182015493810193909352600280820154928401929092526003810154606084015260048101549091608084019160ff169081111562001e5057fe5b600281111562001e5c57fe5b81526005919091015460209091015260a0810151909150600062001c9f858562002013565b60008282018381101562000c2857600080fd5b5050565b60008262001ea95750600062000c05565b8282028284828162001eb757fe5b041462000c2857600080fd5b60008282111562001ed357600080fd5b50900390565b825160609060008167ffffffffffffffff8111801562001ef857600080fd5b5060405190808252806020026020018201604052801562001f23578160200160208202803683370190505b50905060005b8281101562001fc55786818151811062001f3f57fe5b602002602001015186828151811062001f5457fe5b60200260200101518660405162001f6b9062002198565b62001f7993929190620024f8565b604051809103906000f08015801562001f96573d6000803e3d6000fd5b5082828151811062001fa457fe5b6001600160a01b039092166020928302919091019091015260010162001f29565b5095945050505050565b600080831215801562001feb57506001600160ff1b0383038212155b80620020095750600083128015620020095750600160ff1b83038213155b62001ed357600080fd5b60008083121580156200202f5750826001600160ff1b03038213155b806200204d57506000831280156200204d575082600160ff1b038212155b6200205757600080fd5b500190565b60405180606001604052806003906020820280368337509192915050565b8260038101928215620020ab579160200282015b82811115620020ab5782518255916020019190600101906200208e565b50620020b9929150620021a6565b5090565b6040518060c001604052806000815260200160008152602001600081526020016000815260200160006002811115620020f257fe5b8152602001600081525090565b6040518060a0016040528060006001600160a01b03168152602001606081526020016000815260200160006001600160a01b03168152602001600081525090565b828054828255906000526020600020908101928215620020ab579160200282015b82811115620020ab57825182546001600160a01b0319166001600160a01b0390911617825560209092019160019091019062002161565b6111f3806200281283390190565b5b80821115620020b95760008155600101620021a7565b80356001600160a01b03811681146200085b57600080fd5b600060208284031215620021e7578081fd5b62000c2882620021bd565b600080600080600080600080610100898b0312156200220f578384fd5b6200221a89620021bd565b9a60208a01359a5060408a013599606081013599506080810135985060a0810135975060c0810135965060e00135945092505050565b6000806040838503121562002263578182fd5b823567ffffffffffffffff808211156200227b578384fd5b818501915085601f8301126200228f578384fd5b81356020828211156200229e57fe5b80820260405182828201018181108682111715620022b857fe5b604052838152828101945085830182870184018b1015620022d7578889fd5b8896505b84871015620022fb578035865260019690960195948301948301620022db565b5096506200230d9050878201620021bd565b9450505050509250929050565b6000602082840312156200232c578081fd5b8151801515811462000c28578182fd5b6000602082840312156200234e578081fd5b5035919050565b60006020828403121562002367578081fd5b5051919050565b6000806040838503121562002381578182fd5b823591506200239360208401620021bd565b90509250929050565b600080600060608486031215620023b1578283fd5b505081359360208301359350604090920135919050565b600080600060608486031215620023dd578283fd5b8335925060208401359150620023f660408501620021bd565b90509250925092565b6001600160a01b03169052565b600381106200241757fe5b9052565b60008151808452815b81811015620024425760208185018101518683018201520162002424565b81811115620024545782602083870101525b50601f01601f19169290920160200192915050565b6001600160a01b0391909116815260200190565b6001600160a01b039384168152919092166020820152604081019190915260600190565b6001600160a01b03929092168252602082015260400190565b60608101818360005b6003811015620024e4578151835260209283019290910190600101620024c3565b50505092915050565b901515815260200190565b6000606082526200250d60608301866200241b565b82810360208401526200252181866200241b565b91505060018060a01b0383166040830152949350505050565b60208082526057908201527f4f6e6c792074686520547275737465644d61726b6574466163746f7279206f7760408201527f6e65722063616e207265736f6c766520746865206d61726b65742c207573696e60608201527f6720747275737465645265736f6c76654d61726b657473000000000000000000608082015260a00190565b6020808252604b908201527f536861726573206d75737420626520626f74682067726561746572207468616e60408201527f20286f7220657175616c20746f2920616e6420646976697369626c652062792060608201526a39b430b932a330b1ba37b960a91b608082015260a00190565b6020808252600e908201526d139bc81cdd58da081b585c9ad95d60921b604082015260600190565b60208082526017908201527f4d61726b65747320616c72656164792063726561746564000000000000000000604082015260600190565b600060c082019050825182526020830151602083015260408301516040830152606083015160608301526080830151620026cb60808401826200240c565b5060a092830151919092015290565b602080825282516001600160a01b03908116838301528382015160a06040850152805160c08501819052600093929183019190849060e08701905b80831015620027395784518416825293850193600192909201919085019062002715565b5060408801516060880152606088015194506200275a6080880186620023ff565b608088015160a0880152809550505050505092915050565b90815260200190565b9182526001600160a01b0316602082015260400190565b8881526001600160a01b0388166020820152604081018790526101008101620027bf60608301886200240c565b8560808301528460a08301528360c08301528260e08301529998505050505050505050565b918252602082015260400190565b92835260208301919091526001600160a01b031660408201526060019056fe60806040523480156200001157600080fd5b50604051620011f3380380620011f3833981810160405260608110156200003757600080fd5b81019080805160405193929190846401000000008211156200005857600080fd5b9083019060208201858111156200006e57600080fd5b82516401000000008111828201881017156200008957600080fd5b82525081516020918201929091019080838360005b83811015620000b85781810151838201526020016200009e565b50505050905090810190601f168015620000e65780820380516001836020036101000a031916815260200191505b50604052602001805160405193929190846401000000008211156200010a57600080fd5b9083019060208201858111156200012057600080fd5b82516401000000008111828201881017156200013b57600080fd5b82525081516020918201929091019080838360005b838110156200016a57818101518382015260200162000150565b50505050905090810190601f168015620001985780820380516001836020036101000a031916815260200191505b5060405260209081015185519093508592508491620001bd9160039185019062000219565b508051620001d390600490602084019062000219565b5050600580546001600160a01b039390931661010090810233909102610100600160a81b031960ff199095166012178516179093169290921790915550620002c5915050565b828054600181600116156101000203166002900490600052602060002090601f0160209004810192826200025157600085556200029c565b82601f106200026c57805160ff19168380011785556200029c565b828001600101855582156200029c579182015b828111156200029c5782518255916020019190600101906200027f565b50620002aa929150620002ae565b5090565b5b80821115620002aa5760008155600101620002af565b610f1e80620002d56000396000f3fe608060405234801561001057600080fd5b506004361061010b5760003560e01c806370a08231116100a2578063a457c2d711610071578063a457c2d714610343578063a9059cbb1461036f578063c024cd261461039b578063dd62ed3e146103c7578063f2fde38b146103f55761010b565b806370a08231146102cb57806371297784146102f1578063893d20e81461031757806395d89b411461033b5761010b565b806323b872dd116100de57806323b872dd1461021f578063313ce56714610255578063395093511461027357806342986e131461029f5761010b565b806306fdde0314610110578063095ea7b31461018d5780630fb66557146101cd57806318160ddd14610205575b600080fd5b61011861041b565b6040805160208082528351818301528351919283929083019185019080838360005b8381101561015257818101518382015260200161013a565b50505050905090810190601f16801561017f5780820380516001836020036101000a031916815260200191505b509250505060405180910390f35b6101b9600480360360408110156101a357600080fd5b506001600160a01b0381351690602001356104b1565b604080519115158252519081900360200190f35b610203600480360360608110156101e357600080fd5b506001600160a01b038135811691602081013590911690604001356104ce565b005b61020d6104fa565b60408051918252519081900360200190f35b6101b96004803603606081101561023557600080fd5b506001600160a01b03813581169160208101359091169060400135610500565b61025d610587565b6040805160ff9092168252519081900360200190f35b6101b96004803603604081101561028957600080fd5b506001600160a01b038135169060200135610590565b610203600480360360408110156102b557600080fd5b506001600160a01b0381351690602001356105de565b61020d600480360360208110156102e157600080fd5b50356001600160a01b0316610608565b61020d6004803603602081101561030757600080fd5b50356001600160a01b0316610623565b61031f61065f565b604080516001600160a01b039092168252519081900360200190f35b610118610673565b6101b96004803603604081101561035957600080fd5b506001600160a01b0381351690602001356106d4565b6101b96004803603604081101561038557600080fd5b506001600160a01b03813516906020013561073c565b610203600480360360408110156103b157600080fd5b506001600160a01b038135169060200135610750565b61020d600480360360408110156103dd57600080fd5b506001600160a01b0381358116916020013516610776565b6101b96004803603602081101561040b57600080fd5b50356001600160a01b03166107a1565b60038054604080516020601f60026000196101006001881615020190951694909404938401819004810282018101909252828152606093909290918301828280156104a75780601f1061047c576101008083540402835291602001916104a7565b820191906000526020600020905b81548152906001019060200180831161048a57829003601f168201915b5050505050905090565b60006104c56104be610818565b848461081c565b50600192915050565b60055461010090046001600160a01b031633146104ea57600080fd5b6104f5838383610908565b505050565b60025490565b600061050d848484610908565b61057d84610519610818565b61057885604051806060016040528060288152602001610e32602891396001600160a01b038a16600090815260016020526040812090610557610818565b6001600160a01b031681526020810191909152604001600020549190610a63565b61081c565b5060019392505050565b60055460ff1690565b60006104c561059d610818565b8461057885600160006105ae610818565b6001600160a01b03908116825260208083019390935260409182016000908120918c168152925290205490610afa565b60055461010090046001600160a01b031633146105fa57600080fd5b6106048282610b5b565b5050565b6001600160a01b031660009081526020819052604090205490565b60055460009061010090046001600160a01b0316331461064257600080fd5b600061064d83610608565b90506106598382610b5b565b92915050565b60055461010090046001600160a01b031690565b60048054604080516020601f60026000196101006001881615020190951694909404938401819004810282018101909252828152606093909290918301828280156104a75780601f1061047c576101008083540402835291602001916104a7565b60006104c56106e1610818565b8461057885604051806060016040528060258152602001610ec4602591396001600061070b610818565b6001600160a01b03908116825260208083019390935260409182016000908120918d16815292529020549190610a63565b60006104c5610749610818565b8484610908565b60055461010090046001600160a01b0316331461076c57600080fd5b6106048282610c57565b6001600160a01b03918216600090815260016020908152604080832093909416825291909152205490565b60055460009061010090046001600160a01b031633146107c057600080fd5b6001600160a01b0382166107d357600080fd5b6005546107ee9061010090046001600160a01b031683610604565b50600580546001600160a01b03831661010002610100600160a81b03199091161790556001919050565b3390565b6001600160a01b0383166108615760405162461bcd60e51b8152600401808060200182810382526024815260200180610ea06024913960400191505060405180910390fd5b6001600160a01b0382166108a65760405162461bcd60e51b8152600401808060200182810382526022815260200180610dea6022913960400191505060405180910390fd5b6001600160a01b03808416600081815260016020908152604080832094871680845294825291829020859055815185815291517f8c5be1e5ebec7d5bd14f71427d1e84f3dd0314c0f7b2291e5b200ac8c7c3b9259281900390910190a3505050565b6001600160a01b03831661094d5760405162461bcd60e51b8152600401808060200182810382526025815260200180610e7b6025913960400191505060405180910390fd5b6001600160a01b0382166109925760405162461bcd60e51b8152600401808060200182810382526023815260200180610da56023913960400191505060405180910390fd5b61099d8383836104f5565b6109da81604051806060016040528060268152602001610e0c602691396001600160a01b0386166000908152602081905260409020549190610a63565b6001600160a01b038085166000908152602081905260408082209390935590841681522054610a099082610afa565b6001600160a01b038084166000818152602081815260409182902094909455805185815290519193928716927fddf252ad1be2c89b69c2b068fc378daa952ba7f163c4a11628f55a4df523b3ef92918290030190a3505050565b60008184841115610af25760405162461bcd60e51b81526004018080602001828103825283818151815260200191508051906020019080838360005b83811015610ab7578181015183820152602001610a9f565b50505050905090810190601f168015610ae45780820380516001836020036101000a031916815260200191505b509250505060405180910390fd5b505050900390565b600082820183811015610b54576040805162461bcd60e51b815260206004820152601b60248201527f536166654d6174683a206164646974696f6e206f766572666c6f770000000000604482015290519081900360640190fd5b9392505050565b6001600160a01b038216610ba05760405162461bcd60e51b8152600401808060200182810382526021815260200180610e5a6021913960400191505060405180910390fd5b610bac826000836104f5565b610be981604051806060016040528060228152602001610dc8602291396001600160a01b0385166000908152602081905260409020549190610a63565b6001600160a01b038316600090815260208190526040902055600254610c0f9082610d47565b6002556040805182815290516000916001600160a01b038516917fddf252ad1be2c89b69c2b068fc378daa952ba7f163c4a11628f55a4df523b3ef9181900360200190a35050565b6001600160a01b038216610cb2576040805162461bcd60e51b815260206004820152601f60248201527f45524332303a206d696e7420746f20746865207a65726f206164647265737300604482015290519081900360640190fd5b610cbe600083836104f5565b600254610ccb9082610afa565b6002556001600160a01b038216600090815260208190526040902054610cf19082610afa565b6001600160a01b0383166000818152602081815260408083209490945583518581529351929391927fddf252ad1be2c89b69c2b068fc378daa952ba7f163c4a11628f55a4df523b3ef9281900390910190a35050565b600082821115610d9e576040805162461bcd60e51b815260206004820152601e60248201527f536166654d6174683a207375627472616374696f6e206f766572666c6f770000604482015290519081900360640190fd5b5090039056fe45524332303a207472616e7366657220746f20746865207a65726f206164647265737345524332303a206275726e20616d6f756e7420657863656564732062616c616e636545524332303a20617070726f766520746f20746865207a65726f206164647265737345524332303a207472616e7366657220616d6f756e7420657863656564732062616c616e636545524332303a207472616e7366657220616d6f756e74206578636565647320616c6c6f77616e636545524332303a206275726e2066726f6d20746865207a65726f206164647265737345524332303a207472616e736665722066726f6d20746865207a65726f206164647265737345524332303a20617070726f76652066726f6d20746865207a65726f206164647265737345524332303a2064656372656173656420616c6c6f77616e63652062656c6f77207a65726fa2646970667358221220b60007ecbeec6564473914d3b4f0b97a220a5bfda24f70f0ab97a0af64be508e64736f6c63430007060033a2646970667358221220b116956882fd4a270f547e9bcacf6111c174e8d8b2873594724fdcf88360e82f64736f6c63430007060033",
  "linkReferences": {},
  "deployedLinkReferences": {}
}