{
  "_format": "hh-sol-artifact-1",
  "contractName": "BBronze",
  "sourceName": "contracts/balancer/BColor.sol",
  "abi": [
    {
      "inputs": [],
      "name": "getColor",
      "outputs": [
        {
          "internalType": "bytes32",
          "name": "",
          "type": "bytes32"
        }
      ],
      "stateMutability": "pure",
      "type": "function"
    }
  ],
  "bytecode": "0x6080604052348015600f57600080fd5b5060888061001e6000396000f3fe6080604052348015600f57600080fd5b506004361060285760003560e01c80639a86139b14602d575b600080fd5b60336045565b60408051918252519081900360200190f35b6542524f4e5a4560d01b9056fea26469706673582212200e70c18a0af87bddca475e64c559413f958e0be941434fd30879346bfa8a45e164736f6c63430007060033",
  "linkReferences": {},
  "deployedLinkReferences": {}
}