{
  "_format": "hh-sol-artifact-1",
  "contractName": "PriceMarketFactory",
  "sourceName": "contracts/turbo/PriceMarketFactory.sol",
  "abi": [
    {
      "inputs": [
        {
          "internalType": "contract BPool",
          "name": "_pool",
          "type": "address"
        },
        {
          "internalType": "contract IERC20Full",
          "name": "_tokenIn",
          "type": "address"
        },
        {
          "internalType": "contract IERC20Full",
          "name": "_tokenOut",
          "type": "address"
        },
        {
          "internalType": "contract IERC20Full",
          "name": "_collateral",
          "type": "address"
        },
        {
          "internalType": "uint256",
          "name": "_shareFactor",
          "type": "uint256"
        },
        {
          "internalType": "contract FeePot",
          "name": "_feePot",
          "type": "address"
        },
        {
          "internalType": "uint256",
          "name": "_stakerFee",
          "type": "uint256"
        },
        {
          "internalType": "uint256",
          "name": "_creatorFee",
          "type": "uint256"
        }
      ],
      "stateMutability": "nonpayable",
      "type": "constructor"
    },
    {
      "anonymous": false,
      "inputs": [
        {
          "indexed": false,
          "internalType": "uint256",
          "name": "id",
          "type": "uint256"
        },
        {
          "indexed": false,
          "internalType": "address",
          "name": "creator",
          "type": "address"
        },
        {
          "indexed": false,
          "internalType": "uint256",
          "name": "endTime",
          "type": "uint256"
        },
        {
          "indexed": false,
          "internalType": "uint256",
          "name": "spotPrice",
          "type": "uint256"
        }
      ],
      "name": "MarketCreated",
      "type": "event"
    },
    {
      "anonymous": false,
      "inputs": [
        {
          "indexed": false,
          "internalType": "uint256",
          "name": "id",
          "type": "uint256"
        },
        {
          "indexed": false,
          "internalType": "address",
          "name": "winner",
          "type": "address"
        }
      ],
      "name": "MarketResolved",
      "type": "event"
    },
    {
      "anonymous": false,
      "inputs": [
        {
          "indexed": false,
          "internalType": "uint256",
          "name": "id",
          "type": "uint256"
        },
        {
          "indexed": false,
          "internalType": "uint256",
          "name": "amount",
          "type": "uint256"
        },
        {
          "indexed": false,
          "internalType": "address",
          "name": "receiver",
          "type": "address"
        }
      ],
      "name": "SharesBurned",
      "type": "event"
    },
    {
      "anonymous": false,
      "inputs": [
        {
          "indexed": false,
          "internalType": "uint256",
          "name": "id",
          "type": "uint256"
        },
        {
          "indexed": false,
          "internalType": "uint256",
          "name": "amount",
          "type": "uint256"
        },
        {
          "indexed": false,
          "internalType": "address",
          "name": "receiver",
          "type": "address"
        }
      ],
      "name": "SharesMinted",
      "type": "event"
    },
    {
      "anonymous": false,
      "inputs": [
        {
          "indexed": false,
          "internalType": "uint256",
          "name": "id",
          "type": "uint256"
        },
        {
          "indexed": false,
          "internalType": "uint256",
          "name": "amount",
          "type": "uint256"
        },
        {
          "indexed": true,
          "internalType": "address",
          "name": "receiver",
          "type": "address"
        }
      ],
      "name": "WinningsClaimed",
      "type": "event"
    },
    {
      "inputs": [
        {
          "internalType": "address",
          "name": "",
          "type": "address"
        }
      ],
      "name": "accumulatedCreatorFees",
      "outputs": [
        {
          "internalType": "uint256",
          "name": "",
          "type": "uint256"
        }
      ],
      "stateMutability": "view",
      "type": "function"
    },
    {
      "inputs": [
        {
          "internalType": "uint256",
          "name": "_id",
          "type": "uint256"
        },
        {
          "internalType": "uint256",
          "name": "_sharesToBurn",
          "type": "uint256"
        },
        {
          "internalType": "address",
          "name": "_receiver",
          "type": "address"
        }
      ],
      "name": "burnShares",
      "outputs": [
        {
          "internalType": "uint256",
          "name": "",
          "type": "uint256"
        }
      ],
      "stateMutability": "nonpayable",
      "type": "function"
    },
    {
      "inputs": [
        {
          "internalType": "uint256",
          "name": "_shares",
          "type": "uint256"
        }
      ],
      "name": "calcCost",
      "outputs": [
        {
          "internalType": "uint256",
          "name": "",
          "type": "uint256"
        }
      ],
      "stateMutability": "view",
      "type": "function"
    },
    {
      "inputs": [
        {
          "internalType": "uint256",
          "name": "_collateralIn",
          "type": "uint256"
        }
      ],
      "name": "calcShares",
      "outputs": [
        {
          "internalType": "uint256",
          "name": "",
          "type": "uint256"
        }
      ],
      "stateMutability": "view",
      "type": "function"
    },
    {
      "inputs": [
        {
          "internalType": "address",
          "name": "_receiver",
          "type": "address"
        }
      ],
      "name": "claimCreatorFees",
      "outputs": [],
      "stateMutability": "nonpayable",
      "type": "function"
    },
    {
      "inputs": [
        {
          "internalType": "uint256[]",
          "name": "_ids",
          "type": "uint256[]"
        },
        {
          "internalType": "address",
          "name": "_receiver",
          "type": "address"
        }
      ],
      "name": "claimManyWinnings",
      "outputs": [
        {
          "internalType": "uint256",
          "name": "",
          "type": "uint256"
        }
      ],
      "stateMutability": "nonpayable",
      "type": "function"
    },
    {
      "inputs": [
        {
          "internalType": "uint256",
          "name": "_id",
          "type": "uint256"
        },
        {
          "internalType": "address",
          "name": "_receiver",
          "type": "address"
        }
      ],
      "name": "claimWinnings",
      "outputs": [
        {
          "internalType": "uint256",
          "name": "",
          "type": "uint256"
        }
      ],
      "stateMutability": "nonpayable",
      "type": "function"
    },
    {
      "inputs": [],
      "name": "collateral",
      "outputs": [
        {
          "internalType": "contract IERC20Full",
          "name": "",
          "type": "address"
        }
      ],
      "stateMutability": "view",
      "type": "function"
    },
    {
      "inputs": [
        {
          "internalType": "address",
          "name": "_creator",
          "type": "address"
        },
        {
          "internalType": "uint256",
          "name": "_endTime",
          "type": "uint256"
        },
        {
          "internalType": "uint256",
          "name": "_spotPrice",
          "type": "uint256"
        }
      ],
      "name": "createMarket",
      "outputs": [
        {
          "internalType": "uint256",
          "name": "",
          "type": "uint256"
        }
      ],
      "stateMutability": "nonpayable",
      "type": "function"
    },
    {
      "inputs": [],
      "name": "creatorFee",
      "outputs": [
        {
          "internalType": "uint256",
          "name": "",
          "type": "uint256"
        }
      ],
      "stateMutability": "view",
      "type": "function"
    },
    {
      "inputs": [],
      "name": "feePot",
      "outputs": [
        {
          "internalType": "contract FeePot",
          "name": "",
          "type": "address"
        }
      ],
      "stateMutability": "view",
      "type": "function"
    },
    {
      "inputs": [
        {
          "internalType": "uint256",
          "name": "_id",
          "type": "uint256"
        }
      ],
      "name": "getMarket",
      "outputs": [
        {
          "components": [
            {
              "internalType": "address",
              "name": "creator",
              "type": "address"
            },
            {
              "internalType": "contract OwnedERC20[]",
              "name": "shareTokens",
              "type": "address[]"
            },
            {
              "internalType": "uint256",
              "name": "endTime",
              "type": "uint256"
            },
            {
              "internalType": "contract OwnedERC20",
              "name": "winner",
              "type": "address"
            },
            {
              "internalType": "uint256",
              "name": "creatorFee",
              "type": "uint256"
            }
          ],
          "internalType": "struct AbstractMarketFactory.Market",
          "name": "",
          "type": "tuple"
        }
      ],
      "stateMutability": "view",
      "type": "function"
    },
    {
      "inputs": [
        {
          "internalType": "uint256",
          "name": "_id",
          "type": "uint256"
        }
      ],
      "name": "getMarketDetails",
      "outputs": [
        {
          "components": [
            {
              "internalType": "uint256",
              "name": "spotPrice",
              "type": "uint256"
            },
            {
              "internalType": "uint256",
              "name": "resolvedSpotPrice",
              "type": "uint256"
            }
          ],
          "internalType": "struct PriceMarketFactory.MarketDetails",
          "name": "",
          "type": "tuple"
        }
      ],
      "stateMutability": "view",
      "type": "function"
    },
    {
      "inputs": [
        {
          "internalType": "uint256",
          "name": "_id",
          "type": "uint256"
        }
      ],
      "name": "isMarketResolved",
      "outputs": [
        {
          "internalType": "bool",
          "name": "",
          "type": "bool"
        }
      ],
      "stateMutability": "view",
      "type": "function"
    },
    {
      "inputs": [],
      "name": "marketCount",
      "outputs": [
        {
          "internalType": "uint256",
          "name": "",
          "type": "uint256"
        }
      ],
      "stateMutability": "view",
      "type": "function"
    },
    {
      "inputs": [
        {
          "internalType": "uint256",
          "name": "_id",
          "type": "uint256"
        },
        {
          "internalType": "uint256",
          "name": "_shareToMint",
          "type": "uint256"
        },
        {
          "internalType": "address",
          "name": "_receiver",
          "type": "address"
        }
      ],
      "name": "mintShares",
      "outputs": [],
      "stateMutability": "nonpayable",
      "type": "function"
    },
    {
      "inputs": [
        {
          "internalType": "uint256",
          "name": "_id",
          "type": "uint256"
        }
      ],
      "name": "resolveMarket",
      "outputs": [],
      "stateMutability": "nonpayable",
      "type": "function"
    },
    {
      "inputs": [],
      "name": "shareFactor",
      "outputs": [
        {
          "internalType": "uint256",
          "name": "",
          "type": "uint256"
        }
      ],
      "stateMutability": "view",
      "type": "function"
    },
    {
      "inputs": [],
      "name": "stakerFee",
      "outputs": [
        {
          "internalType": "uint256",
          "name": "",
          "type": "uint256"
        }
      ],
      "stateMutability": "view",
      "type": "function"
    }
  ],
  "bytecode": "0x60806040523480156200001157600080fd5b506040516200306638038062003066833981016040819052620000349162000175565b600080546001600160a01b038088166001600160a01b03199283168117909355600587905560018054918716919092161790556002839055600382905560405163095ea7b360e01b8152869186918691869186919063095ea7b390620000a3908690600019906004016200020e565b602060405180830381600087803b158015620000be57600080fd5b505af1158015620000d3573d6000803e3d6000fd5b505050506040513d601f19601f82011682018060405250810190620000f991906200014c565b5050600780546001600160a01b03199081166001600160a01b039e8f16179091556008805482169c8e169c909c17909b555050600980549099169790991696909617909655506200024095505050505050565b6000602082840312156200015e578081fd5b815180151581146200016e578182fd5b9392505050565b600080600080600080600080610100898b03121562000192578384fd5b88516200019f8162000227565b60208a0151909850620001b28162000227565b60408a0151909750620001c58162000227565b60608a0151909650620001d88162000227565b60808a015160a08b01519196509450620001f28162000227565b60c08a015160e0909a0151989b979a5095989497939692505050565b6001600160a01b03929092168252602082015260400190565b6001600160a01b03811681146200023d57600080fd5b50565b612e1680620002506000396000f3fe60806040523480156200001157600080fd5b50600436106200013c5760003560e01c8063992c907911620000bd578063d8dfeb45116200007b578063d8dfeb4514620002a3578063e5678dfa14620002ad578063e88958dc14620002c4578063eb44fdd314620002ce578063ec97908214620002f4576200013c565b8063992c90791462000221578063b06c1ba31462000238578063bf605d8e146200025e578063cc87adea1462000275578063d6ae6e44146200028c576200013c565b80634b2d9ffc116200010b5780634b2d9ffc14620001b75780634c9f66c714620001c157806353ac55f514620001da5780636399d03d14620002005780637641ab011462000217576200013c565b80631e08aae21462000141578063221fff81146200017057806335a9cdad1462000189578063473a6d5214620001a0575b600080fd5b6200015862000152366004620016ca565b620002fe565b60405162000167919062001b7c565b60405180910390f35b620001876200018136600462001868565b62000310565b005b620001586200019a36600462001868565b62000580565b62000158620001b136600462001808565b6200075c565b62000158620007af565b620001cb620007b5565b604051620001679190620018fa565b620001f1620001eb36600462001808565b620007c4565b60405162000167919062001965565b620001876200021136600462001808565b6200089a565b6200015862000aa0565b62000158620002323660046200183a565b62000aa6565b6200024f6200024936600462001808565b62000c82565b60405162000167919062001acd565b620001586200026f366004620016e7565b62000cce565b620001586200028636600462001808565b62000fce565b620001876200029d366004620016ca565b62000fd5565b620001cb62001078565b62000158620002be3660046200171c565b62001087565b62000158620010d5565b620002e5620002df36600462001808565b620010db565b60405162000167919062001ae4565b62000158620011f4565b60046020526000908152604090205481565b6000600684815481106200032057fe5b60009182526020918290206040805160a081018252600590930290910180546001600160a01b03168352600181018054835181870281018701909452808452939491938583019392830182828015620003a357602002820191906000526020600020905b81546001600160a01b0316815260019091019060200180831162000384575b50505091835250506002820154602082015260038201546001600160a01b0316604080830191909152600490920154606090910152810151909150620004065760405162461bcd60e51b8152600401620003fd9062001a6e565b60405180910390fd5b600062000413846200075c565b6000546040516323b872dd60e01b81529192506001600160a01b0316906323b872dd906200044a903390309086906004016200190e565b602060405180830381600087803b1580156200046557600080fd5b505af11580156200047a573d6000803e3d6000fd5b505050506040513d601f19601f82011682018060405250810190620004a09190620017e6565b5060005b8260200151518110156200053b5782602001518181518110620004c357fe5b60200260200101516001600160a01b031663c024cd2685876040518363ffffffff1660e01b8152600401620004fa92919062001932565b600060405180830381600087803b1580156200051557600080fd5b505af11580156200052a573d6000803e3d6000fd5b505060019092019150620004a49050565b507fd81c0442e10068a9818f3aa093c9ccb804584690df572d7df3da2d892a6973f2858585604051620005719392919062001bce565b60405180910390a15050505050565b600080600685815481106200059157fe5b60009182526020918290206040805160a081018252600590930290910180546001600160a01b031683526001810180548351818702810187019094528084529394919385830193928301828280156200061457602002820191906000526020600020905b81546001600160a01b03168152600190910190602001808311620005f5575b50505091835250506002820154602082015260038201546001600160a01b03166040808301919091526004909201546060909101528101519091506200066e5760405162461bcd60e51b8152600401620003fd9062001a6e565b60005b8160200151518110156200070857816020015181815181106200069057fe5b60200260200101516001600160a01b03166342986e1333876040518363ffffffff1660e01b8152600401620006c792919062001932565b600060405180830381600087803b158015620006e257600080fd5b505af1158015620006f7573d6000803e3d6000fd5b505060019092019150620006719050565b507fb6fdb729b2ed801daf629f0ab713e4a7a73619505790f6f27fd92d6f2c9688d78585336040516200073e9392919062001bce565b60405180910390a162000753858585620011fa565b95945050505050565b600060055482101580156200077b575060055482816200077857fe5b06155b6200079a5760405162461bcd60e51b8152600401620003fd90620019fd565b6005548281620007a657fe5b0490505b919050565b60025481565b6001546001600160a01b031681565b60008060068381548110620007d557fe5b60009182526020918290206040805160a081018252600590930290910180546001600160a01b031683526001810180548351818702810187019094528084529394919385830193928301828280156200085857602002820191906000526020600020905b81546001600160a01b0316815260019091019060200180831162000839575b50505091835250506002820154602082015260038201546001600160a01b03908116604083015260049092015460609182015291909101511615159392505050565b600060068281548110620008aa57fe5b906000526020600020906005020190506000600a8381548110620008ca57fe5b906000526020600020906002020190506000826002015411620009015760405162461bcd60e51b8152600401620003fd9062001a6e565b42826002015411620009275760405162461bcd60e51b8152600401620003fd90620019b2565b600754600854600954604051631446a7ff60e01b81526000936001600160a01b0390811693631446a7ff9362000966939183169216906004016200194b565b60206040518083038186803b1580156200097f57600080fd5b505afa15801562000994573d6000803e3d6000fd5b505050506040513d601f19601f82011682018060405250810190620009ba919062001821565b60018301819055825490915081101562000a125782600101600081548110620009df57fe5b6000918252602090912001546003840180546001600160a01b0319166001600160a01b0390921691909117905562000a51565b8260010160018154811062000a2357fe5b6000918252602090912001546003840180546001600160a01b0319166001600160a01b039092169190911790555b60038301546040517fc68d106ea6e4bec784925cfd91767212c71ced92adbac107dc364435321113f69162000a929187916001600160a01b03169062001b85565b60405180910390a150505050565b60055481565b600062000ab383620007c4565b62000ac35762000ac3836200089a565b60006006848154811062000ad357fe5b60009182526020918290206040805160a081018252600590930290910180546001600160a01b0316835260018101805483518187028101870190945280845293949193858301939283018282801562000b5657602002820191906000526020600020905b81546001600160a01b0316815260019091019060200180831162000b37575b50505091835250506002820154602082015260038201546001600160a01b03908116604080840191909152600493840154606093840152918401519151631c4a5de160e21b815293945060009391169163712977849162000bba91339101620018fa565b602060405180830381600087803b15801562000bd557600080fd5b505af115801562000bea573d6000803e3d6000fd5b505050506040513d601f19601f8201168201806040525081019062000c10919062001821565b9050600554600554828162000c2157fe5b04029050336001600160a01b03167f2bdd7a5109193ce6270ec3b4afcf4ccd4a06c27742ba11f660498cb41433bb00868360405162000c6292919062001bc0565b60405180910390a262000c77858286620011fa565b925050505b92915050565b62000c8c620015c8565b600a828154811062000c9a57fe5b9060005260206000209060020201604051806040016040529081600082015481526020016001820154815250509050919050565b600042831162000cf25760405162461bcd60e51b8152600401620003fd9062001a96565b60408051600280825260608201909252600091816020015b606081526020019060019003908162000d0a579050509050604051806040016040528060038152602001624c6f7760e81b8152508160008151811062000d4c57fe5b602002602001018190525060405180604001604052806004815260200163090d2ced60e31b8152508160018151811062000d8257fe5b602090810291909101015260408051600280825260608201909252600091816020015b606081526020019060019003908162000da5579050509050604051806040016040528060038152602001624c4f5760e81b8152508160008151811062000de757fe5b602002602001018190525060405180604001604052806004815260200163090928e960e31b8152508160018151811062000e1d57fe5b60200260200101819052506000600680549050905060066040518060a00160405280896001600160a01b0316815260200162000e5b86863062001477565b815260208082018a905260006040830181905260035460609093019290925283546001808201865594835291819020835160059093020180546001600160a01b0319166001600160a01b039093169290921782558281015180519394929362000ecc938501929190910190620015e2565b5060408281015160028084019190915560608401516003840180546001600160a01b039092166001600160a01b031990921691909117905560809093015160049092019190915580518082018252878152600060208201818152600a80546001810182559252915193027fc65a7bb8d6351c1cf70c95a316cc6a92839c986682d98bc35f958f4883f9d2a8810193909355517fc65a7bb8d6351c1cf70c95a316cc6a92839c986682d98bc35f958f4883f9d2a990920191909155517f28c8de42a10b7bcc4a65ea3618bc8ada3e24cd7394886eae1b4f5f74404770809062000fbc9083908a908a908a9062001b9c565b60405180910390a19695505050505050565b6005540290565b3360009081526004602081905260408083208054908490559254905163a9059cbb60e01b81526001600160a01b039091169163a9059cbb916200101d91869186910162001932565b602060405180830381600087803b1580156200103857600080fd5b505af11580156200104d573d6000803e3d6000fd5b505050506040513d601f19601f82011682018060405250810190620010739190620017e6565b505050565b6000546001600160a01b031681565b600080805b8451811015620010cd57620010c2620010ba868381518110620010ab57fe5b60200260200101518662000aa6565b83906200156d565b91506001016200108c565b509392505050565b60035481565b620010e56200164c565b6006548211156200112a57506040805160a0810182526000808252825181815260208082018552830152918101829052606081018290526080810191909152620007aa565b600682815481106200113857fe5b60009182526020918290206040805160a081018252600590930290910180546001600160a01b03168352600181018054835181870281018701909452808452939491938583019392830182828015620011bb57602002820191906000526020600020905b81546001600160a01b031681526001909101906020018083116200119c575b50505091835250506002820154602082015260038201546001600160a01b031660408201526004909101546060909101529050620007aa565b60065490565b60008062001208846200075c565b90506000600686815481106200121a57fe5b60009182526020918290206040805160a081018252600590930290910180546001600160a01b031683526001810180548351818702810187019094528084529394919385830193928301828280156200129d57602002820191906000526020600020905b81546001600160a01b031681526001909101906020018083116200127e575b50505091835250506002820154602082015260038201546001600160a01b031660408201526004909101546060909101526080810151909150600090670de0b6b3a764000090620012ef908562001587565b81620012f757fe5b0490506000670de0b6b3a76400006200131c856002546200158790919063ffffffff16565b816200132457fe5b84516001600160a01b039081166000908152600460208190526040918290208054880190556001549151630ebdac0960e41b8152949093049450169163ebdac09091620013749185910162001b7c565b602060405180830381600087803b1580156200138f57600080fd5b505af1158015620013a4573d6000803e3d6000fd5b505050506040513d601f19601f82011682018060405250810190620013ca9190620017e6565b506000546001600160a01b031663a9059cbb87620013f584620013ee8988620015b2565b90620015b2565b6040518363ffffffff1660e01b81526004016200141492919062001932565b602060405180830381600087803b1580156200142f57600080fd5b505af115801562001444573d6000803e3d6000fd5b505050506040513d601f19601f820116820180604052508101906200146a9190620017e6565b5092979650505050505050565b825160609060008167ffffffffffffffff811180156200149657600080fd5b50604051908082528060200260200182016040528015620014c1578160200160208202803683370190505b50905060005b828110156200156357868181518110620014dd57fe5b6020026020010151868281518110620014f257fe5b60200260200101518660405162001509906200168d565b620015179392919062001970565b604051809103906000f08015801562001534573d6000803e3d6000fd5b508282815181106200154257fe5b6001600160a01b0390921660209283029190910190910152600101620014c7565b5095945050505050565b6000828201838110156200158057600080fd5b9392505050565b600082620015985750600062000c7c565b82820282848281620015a657fe5b04146200158057600080fd5b600082821115620015c257600080fd5b50900390565b604051806040016040528060008152602001600081525090565b8280548282559060005260206000209081019282156200163a579160200282015b828111156200163a57825182546001600160a01b0319166001600160a01b0390911617825560209092019160019091019062001603565b50620016489291506200169b565b5090565b6040518060a0016040528060006001600160a01b03168152602001606081526020016000815260200160006001600160a01b03168152602001600081525090565b6111f38062001bee83390190565b5b808211156200164857600081556001016200169c565b80356001600160a01b0381168114620007aa57600080fd5b600060208284031215620016dc578081fd5b6200158082620016b2565b600080600060608486031215620016fc578182fd5b6200170784620016b2565b95602085013595506040909401359392505050565b600080604083850312156200172f578182fd5b823567ffffffffffffffff8082111562001747578384fd5b818501915085601f8301126200175b578384fd5b81356020828211156200176a57fe5b808202604051828282010181811086821117156200178457fe5b604052838152828101945085830182870184018b1015620017a3578889fd5b8896505b84871015620017c7578035865260019690960195948301948301620017a7565b509650620017d99050878201620016b2565b9450505050509250929050565b600060208284031215620017f8578081fd5b8151801515811462001580578182fd5b6000602082840312156200181a578081fd5b5035919050565b60006020828403121562001833578081fd5b5051919050565b600080604083850312156200184d578182fd5b823591506200185f60208401620016b2565b90509250929050565b6000806000606084860312156200187d578283fd5b83359250602084013591506200189660408501620016b2565b90509250925092565b6001600160a01b03169052565b60008151808452815b81811015620018d357602081850181015186830182015201620018b5565b81811115620018e55782602083870101525b50601f01601f19169290920160200192915050565b6001600160a01b0391909116815260200190565b6001600160a01b039384168152919092166020820152604081019190915260600190565b6001600160a01b03929092168252602082015260400190565b6001600160a01b0392831681529116602082015260400190565b901515815260200190565b600060608252620019856060830186620018ac565b8281036020840152620019998186620018ac565b91505060018060a01b0383166040830152949350505050565b6020808252602b908201527f4d61726b65742063616e6e6f74206265207265736f6c76656420756e74696c2060408201526a69747320656e6454696d6560a81b606082015260800190565b6020808252604b908201527f536861726573206d75737420626520626f74682067726561746572207468616e60408201527f20286f7220657175616c20746f2920616e6420646976697369626c652062792060608201526a39b430b932a330b1ba37b960a91b608082015260a00190565b6020808252600e908201526d139bc81cdd58da081b585c9ad95d60921b604082015260600190565b6020808252601d908201527f4d61726b6574206d75737420656e6420696e2074686520667574757265000000604082015260600190565b815181526020918201519181019190915260400190565b602080825282516001600160a01b03908116838301528382015160a06040850152805160c08501819052600093929183019190849060e08701905b8083101562001b435784518416825293850193600192909201919085019062001b1f565b50604088015160608801526060880151945062001b6460808801866200189f565b608088015160a0880152809550505050505092915050565b90815260200190565b9182526001600160a01b0316602082015260400190565b9384526001600160a01b039290921660208401526040830152606082015260800190565b918252602082015260400190565b92835260208301919091526001600160a01b031660408201526060019056fe60806040523480156200001157600080fd5b50604051620011f3380380620011f3833981810160405260608110156200003757600080fd5b81019080805160405193929190846401000000008211156200005857600080fd5b9083019060208201858111156200006e57600080fd5b82516401000000008111828201881017156200008957600080fd5b82525081516020918201929091019080838360005b83811015620000b85781810151838201526020016200009e565b50505050905090810190601f168015620000e65780820380516001836020036101000a031916815260200191505b50604052602001805160405193929190846401000000008211156200010a57600080fd5b9083019060208201858111156200012057600080fd5b82516401000000008111828201881017156200013b57600080fd5b82525081516020918201929091019080838360005b838110156200016a57818101518382015260200162000150565b50505050905090810190601f168015620001985780820380516001836020036101000a031916815260200191505b5060405260209081015185519093508592508491620001bd9160039185019062000219565b508051620001d390600490602084019062000219565b5050600580546001600160a01b039390931661010090810233909102610100600160a81b031960ff199095166012178516179093169290921790915550620002c5915050565b828054600181600116156101000203166002900490600052602060002090601f0160209004810192826200025157600085556200029c565b82601f106200026c57805160ff19168380011785556200029c565b828001600101855582156200029c579182015b828111156200029c5782518255916020019190600101906200027f565b50620002aa929150620002ae565b5090565b5b80821115620002aa5760008155600101620002af565b610f1e80620002d56000396000f3fe608060405234801561001057600080fd5b506004361061010b5760003560e01c806370a08231116100a2578063a457c2d711610071578063a457c2d714610343578063a9059cbb1461036f578063c024cd261461039b578063dd62ed3e146103c7578063f2fde38b146103f55761010b565b806370a08231146102cb57806371297784146102f1578063893d20e81461031757806395d89b411461033b5761010b565b806323b872dd116100de57806323b872dd1461021f578063313ce56714610255578063395093511461027357806342986e131461029f5761010b565b806306fdde0314610110578063095ea7b31461018d5780630fb66557146101cd57806318160ddd14610205575b600080fd5b61011861041b565b6040805160208082528351818301528351919283929083019185019080838360005b8381101561015257818101518382015260200161013a565b50505050905090810190601f16801561017f5780820380516001836020036101000a031916815260200191505b509250505060405180910390f35b6101b9600480360360408110156101a357600080fd5b506001600160a01b0381351690602001356104b1565b604080519115158252519081900360200190f35b610203600480360360608110156101e357600080fd5b506001600160a01b038135811691602081013590911690604001356104ce565b005b61020d6104fa565b60408051918252519081900360200190f35b6101b96004803603606081101561023557600080fd5b506001600160a01b03813581169160208101359091169060400135610500565b61025d610587565b6040805160ff9092168252519081900360200190f35b6101b96004803603604081101561028957600080fd5b506001600160a01b038135169060200135610590565b610203600480360360408110156102b557600080fd5b506001600160a01b0381351690602001356105de565b61020d600480360360208110156102e157600080fd5b50356001600160a01b0316610608565b61020d6004803603602081101561030757600080fd5b50356001600160a01b0316610623565b61031f61065f565b604080516001600160a01b039092168252519081900360200190f35b610118610673565b6101b96004803603604081101561035957600080fd5b506001600160a01b0381351690602001356106d4565b6101b96004803603604081101561038557600080fd5b506001600160a01b03813516906020013561073c565b610203600480360360408110156103b157600080fd5b506001600160a01b038135169060200135610750565b61020d600480360360408110156103dd57600080fd5b506001600160a01b0381358116916020013516610776565b6101b96004803603602081101561040b57600080fd5b50356001600160a01b03166107a1565b60038054604080516020601f60026000196101006001881615020190951694909404938401819004810282018101909252828152606093909290918301828280156104a75780601f1061047c576101008083540402835291602001916104a7565b820191906000526020600020905b81548152906001019060200180831161048a57829003601f168201915b5050505050905090565b60006104c56104be610818565b848461081c565b50600192915050565b60055461010090046001600160a01b031633146104ea57600080fd5b6104f5838383610908565b505050565b60025490565b600061050d848484610908565b61057d84610519610818565b61057885604051806060016040528060288152602001610e32602891396001600160a01b038a16600090815260016020526040812090610557610818565b6001600160a01b031681526020810191909152604001600020549190610a63565b61081c565b5060019392505050565b60055460ff1690565b60006104c561059d610818565b8461057885600160006105ae610818565b6001600160a01b03908116825260208083019390935260409182016000908120918c168152925290205490610afa565b60055461010090046001600160a01b031633146105fa57600080fd5b6106048282610b5b565b5050565b6001600160a01b031660009081526020819052604090205490565b60055460009061010090046001600160a01b0316331461064257600080fd5b600061064d83610608565b90506106598382610b5b565b92915050565b60055461010090046001600160a01b031690565b60048054604080516020601f60026000196101006001881615020190951694909404938401819004810282018101909252828152606093909290918301828280156104a75780601f1061047c576101008083540402835291602001916104a7565b60006104c56106e1610818565b8461057885604051806060016040528060258152602001610ec4602591396001600061070b610818565b6001600160a01b03908116825260208083019390935260409182016000908120918d16815292529020549190610a63565b60006104c5610749610818565b8484610908565b60055461010090046001600160a01b0316331461076c57600080fd5b6106048282610c57565b6001600160a01b03918216600090815260016020908152604080832093909416825291909152205490565b60055460009061010090046001600160a01b031633146107c057600080fd5b6001600160a01b0382166107d357600080fd5b6005546107ee9061010090046001600160a01b031683610604565b50600580546001600160a01b03831661010002610100600160a81b03199091161790556001919050565b3390565b6001600160a01b0383166108615760405162461bcd60e51b8152600401808060200182810382526024815260200180610ea06024913960400191505060405180910390fd5b6001600160a01b0382166108a65760405162461bcd60e51b8152600401808060200182810382526022815260200180610dea6022913960400191505060405180910390fd5b6001600160a01b03808416600081815260016020908152604080832094871680845294825291829020859055815185815291517f8c5be1e5ebec7d5bd14f71427d1e84f3dd0314c0f7b2291e5b200ac8c7c3b9259281900390910190a3505050565b6001600160a01b03831661094d5760405162461bcd60e51b8152600401808060200182810382526025815260200180610e7b6025913960400191505060405180910390fd5b6001600160a01b0382166109925760405162461bcd60e51b8152600401808060200182810382526023815260200180610da56023913960400191505060405180910390fd5b61099d8383836104f5565b6109da81604051806060016040528060268152602001610e0c602691396001600160a01b0386166000908152602081905260409020549190610a63565b6001600160a01b038085166000908152602081905260408082209390935590841681522054610a099082610afa565b6001600160a01b038084166000818152602081815260409182902094909455805185815290519193928716927fddf252ad1be2c89b69c2b068fc378daa952ba7f163c4a11628f55a4df523b3ef92918290030190a3505050565b60008184841115610af25760405162461bcd60e51b81526004018080602001828103825283818151815260200191508051906020019080838360005b83811015610ab7578181015183820152602001610a9f565b50505050905090810190601f168015610ae45780820380516001836020036101000a031916815260200191505b509250505060405180910390fd5b505050900390565b600082820183811015610b54576040805162461bcd60e51b815260206004820152601b60248201527f536166654d6174683a206164646974696f6e206f766572666c6f770000000000604482015290519081900360640190fd5b9392505050565b6001600160a01b038216610ba05760405162461bcd60e51b8152600401808060200182810382526021815260200180610e5a6021913960400191505060405180910390fd5b610bac826000836104f5565b610be981604051806060016040528060228152602001610dc8602291396001600160a01b0385166000908152602081905260409020549190610a63565b6001600160a01b038316600090815260208190526040902055600254610c0f9082610d47565b6002556040805182815290516000916001600160a01b038516917fddf252ad1be2c89b69c2b068fc378daa952ba7f163c4a11628f55a4df523b3ef9181900360200190a35050565b6001600160a01b038216610cb2576040805162461bcd60e51b815260206004820152601f60248201527f45524332303a206d696e7420746f20746865207a65726f206164647265737300604482015290519081900360640190fd5b610cbe600083836104f5565b600254610ccb9082610afa565b6002556001600160a01b038216600090815260208190526040902054610cf19082610afa565b6001600160a01b0383166000818152602081815260408083209490945583518581529351929391927fddf252ad1be2c89b69c2b068fc378daa952ba7f163c4a11628f55a4df523b3ef9281900390910190a35050565b600082821115610d9e576040805162461bcd60e51b815260206004820152601e60248201527f536166654d6174683a207375627472616374696f6e206f766572666c6f770000604482015290519081900360640190fd5b5090039056fe45524332303a207472616e7366657220746f20746865207a65726f206164647265737345524332303a206275726e20616d6f756e7420657863656564732062616c616e636545524332303a20617070726f766520746f20746865207a65726f206164647265737345524332303a207472616e7366657220616d6f756e7420657863656564732062616c616e636545524332303a207472616e7366657220616d6f756e74206578636565647320616c6c6f77616e636545524332303a206275726e2066726f6d20746865207a65726f206164647265737345524332303a207472616e736665722066726f6d20746865207a65726f206164647265737345524332303a20617070726f76652066726f6d20746865207a65726f206164647265737345524332303a2064656372656173656420616c6c6f77616e63652062656c6f77207a65726fa2646970667358221220b60007ecbeec6564473914d3b4f0b97a220a5bfda24f70f0ab97a0af64be508e64736f6c63430007060033a26469706673582212205929a683438ffcfad3623d63caf0ec2e9a4e7ecc0021f9eec45c12260d3711f764736f6c63430007060033",
  "linkReferences": {},
  "deployedLinkReferences": {}
}