{
  "_format": "hh-sol-artifact-1",
  "contractName": "TheRundownChainlink",
  "sourceName": "contracts/chainlink/TheRundownChainlink.sol",
  "abi": [
    {
      "inputs": [],
      "stateMutability": "nonpayable",
      "type": "constructor"
    },
    {
      "anonymous": false,
      "inputs": [
        {
          "indexed": true,
          "internalType": "bytes32",
          "name": "id",
          "type": "bytes32"
        }
      ],
      "name": "ChainlinkCancelled",
      "type": "event"
    },
    {
      "anonymous": false,
      "inputs": [
        {
          "indexed": true,
          "internalType": "bytes32",
          "name": "id",
          "type": "bytes32"
        }
      ],
      "name": "ChainlinkFulfilled",
      "type": "event"
    },
    {
      "anonymous": false,
      "inputs": [
        {
          "indexed": true,
          "internalType": "bytes32",
          "name": "id",
          "type": "bytes32"
        }
      ],
      "name": "ChainlinkRequested",
      "type": "event"
    },
    {
      "inputs": [
        {
          "internalType": "bytes32",
          "name": "_requestId",
          "type": "bytes32"
        },
        {
          "internalType": "uint256",
          "name": "_score",
          "type": "uint256"
        }
      ],
      "name": "fulfill",
      "outputs": [],
      "stateMutability": "nonpayable",
      "type": "function"
    },
    {
      "inputs": [
        {
          "internalType": "string",
          "name": "_matchId",
          "type": "string"
        }
      ],
      "name": "requestScore",
      "outputs": [],
      "stateMutability": "nonpayable",
      "type": "function"
    },
    {
      "inputs": [],
      "name": "score",
      "outputs": [
        {
          "internalType": "uint256",
          "name": "",
          "type": "uint256"
        }
      ],
      "stateMutability": "view",
      "type": "function"
    }
  ],
  "bytecode": "0x6080604052600160045534801561001557600080fd5b5061001e610079565b600780546001600160a01b0319167356dd6586db0d08c6ce7b2f2805af28616e0824551790557f646262363565666330326433346364646239323065636131626563323261646560085567016345785d8a000060095561011e565b6100fa73c89bd4e1632d3a43cb03aaad5262cbe4038bc5716001600160a01b03166338cc48316040518163ffffffff1660e01b815260040160206040518083038186803b1580156100c957600080fd5b505afa1580156100dd573d6000803e3d6000fd5b505050506040513d60208110156100f357600080fd5b50516100fc565b565b600280546001600160a01b0319166001600160a01b0392909216919091179055565b6109878061012d6000396000f3fe608060405234801561001057600080fd5b50600436106100415760003560e01c80634357855e14610046578063e9f510bf1461006b578063efedc66914610111575b600080fd5b6100696004803603604081101561005c57600080fd5b508035906020013561012b565b005b6100696004803603602081101561008157600080fd5b81019060208101813564010000000081111561009c57600080fd5b8201836020820111156100ae57600080fd5b803590602001918460018302840111640100000000831117156100d057600080fd5b91908080601f0160208091040260200160405190810160405280939291908181526020018383808284376000920191909152509295506101cc945050505050565b61011961022f565b60408051918252519081900360200190f35b60008281526005602052604090205482906001600160a01b031633146101825760405162461bcd60e51b815260040180806020018281038252602881526020018061092a6028913960400191505060405180910390fd5b60008181526005602052604080822080546001600160a01b03191690555182917f7cc135e0cebb02c3480ae5d74d377283180a2601f8f644edf7987b009316c63a91a25060065550565b60006101e260085430634357855e60e01b610235565b6040805180820190915260078152661b585d18da125960ca1b602082015290915061020f9082908461025a565b60075460095461022a916001600160a01b0316908390610278565b505050565b60065481565b61023d6108b7565b6102456108b7565b6102518186868661044d565b95945050505050565b6080830151610269908361048a565b608083015161022a908261048a565b6004546040805130606090811b60208084019190915260348084018690528451808503909101815260549093018452825192810192909220908601939093526000838152600590915281812080546001600160a01b0319166001600160a01b038816179055905182917fb5e6e01e79f91267dc17b4e6314d5d4d03593d2ceee0fbb452b750bd70ea5af991a2600280546001600160a01b031690634000aea090869085906103279088906104a1565b6040518463ffffffff1660e01b815260040180846001600160a01b0316815260200183815260200180602001828103825283818151815260200191508051906020019080838360005b83811015610388578181015183820152602001610370565b50505050905090810190601f1680156103b55780820380516001836020036101000a031916815260200191505b50945050505050602060405180830381600087803b1580156103d657600080fd5b505af11580156103ea573d6000803e3d6000fd5b505050506040513d602081101561040057600080fd5b505161043d5760405162461bcd60e51b81526004018080602001828103825260238152602001806109076023913960400191505060405180910390fd5b6004805460010190559392505050565b6104556108b7565b61046585608001516101006105c6565b50509183526001600160a01b031660208301526001600160e01b031916604082015290565b6104978260038351610600565b61022a82826106da565b6060634042994660e01b6000808560000151866020015187604001518860600151888a608001516000015160405160240180896001600160a01b03168152602001888152602001878152602001866001600160a01b03168152602001856001600160e01b031916815260200184815260200183815260200180602001828103825283818151815260200191508051906020019080838360005b8381101561055257818101518382015260200161053a565b50505050905090810190601f16801561057f5780820380516001836020036101000a031916815260200191505b5060408051601f198184030181529190526020810180516001600160e01b03166001600160e01b0319909d169c909c17909b52509899505050505050505050505b92915050565b6105ce6108ec565b60208206156105e35760208206602003820191505b506020828101829052604080518085526000815290920101905290565b601781116106215761061b8360e0600585901b1683176106fb565b5061022a565b60ff811161064b5761063e836018611fe0600586901b16176106fb565b5061061b83826001610713565b61ffff811161067657610669836019611fe0600586901b16176106fb565b5061061b83826002610713565b63ffffffff81116106a35761069683601a611fe0600586901b16176106fb565b5061061b83826004610713565b67ffffffffffffffff811161022a576106c783601b611fe0600586901b16176106fb565b506106d483826008610713565b50505050565b6106e26108ec565b6106f483846000015151848551610734565b9392505050565b6107036108ec565b6106f483846000015151846107e0565b61071b6108ec565b61072c84856000015151858561082b565b949350505050565b61073c6108ec565b825182111561074a57600080fd5b84602001518285011115610774576107748561076c8760200151878601610889565b6002026108a0565b6000808651805187602083010193508088870111156107935787860182525b505050602084015b602084106107ba5780518252601f19909301926020918201910161079b565b51815160001960208690036101000a019081169019919091161790525083949350505050565b6107e86108ec565b83602001518310610804576108048485602001516002026108a0565b835180516020858301018481535080851415610821576001810182525b5093949350505050565b6108336108ec565b8460200151848301111561085057610850858584016002026108a0565b60006001836101000a03905085518386820101858319825116178152508051848701111561087e5783860181525b509495945050505050565b60008183111561089a5750816105c0565b50919050565b81516108ac83836105c6565b506106d483826106da565b6040805160a0810182526000808252602082018190529181018290526060810191909152608081016108e76108ec565b905290565b60405180604001604052806060815260200160008152509056fe756e61626c6520746f207472616e73666572416e6443616c6c20746f206f7261636c65536f75726365206d75737420626520746865206f7261636c65206f66207468652072657175657374a26469706673582212202d8a97bfe4599215953d2a801a610be6572a0de8c916e84242ab2d1709a8d5e964736f6c63430007060033",
  "linkReferences": {},
  "deployedLinkReferences": {}
}